:100000000C94AF020C94CC020C94CC020C94CC0255
:100010000C94CC020C94CC020C94CC020C94CC0228
:100020000C94CC020C94CC020C9484210C94582295
:100030000C94CA1B0C94CC020C94CC020C94CC02F1
:100040000C94CC020C94CC020C94CC020C94CC02F8
:100050000C94CC020C94511C0C94CC020C94CC0249
:100060000C94CC020C94CC020C94CC020C94CC02D8
:100070000C94CC020C94CC020C94CC020C94CC02C8
:100080000C94CC020C94CC020C94CC020C94CC02B8
:100090000C94CC020C94CC020C94CC020C94CC02A8
:1000A0000C94CC020C94CC020C94CC0229001E00BF
:1000B0001F00200021002200230000002B0014005C
:1000C0001A000800150017001C000000E0000400E2
:1000D0001600070009000A000B000000E1001D00E7
:1000E0001B00060019000500110000003500E200A9
:1000F0002C002C000000000000000000240025005F
:10010000260027002D002E0089002A0018000C0070
:10011000120013002F003000320000000D000E000E
:100120000F003300340028000000000010003600EB
:10013000370038008700E500000000002800280094
:10014000E600E400000000000000000001000100E3
:100150000100010001000100010000000100010098
:100160000100010001000100010000000100010088
:100170000100010001000100010000000100010078
:100180000100010001000100010000000100010068
:10019000010001000000000000000000010001005B
:1001A0000100010001000100010001000100010047
:1001B0000100010001000100010000000100010038
:1001C0000100010001000100000000000100010029
:1001D0000100010001000100000000000100010019
:1001E000010001000000000000000000010001000B
:1001F00001000100010001000100000001000100F8
:1002000001000100010001000100000001000100E7
:1002100001000100010001000100000001000100D7
:1002200001000100010001000100000001000100C7
:1002300001000100000000000000000001000100BA
:1002400001000100010001000100010001000100A6
:100250000100010001000100010000000100010097
:100260000100010001000100000000000100010088
:100270000100010001000100000000000100010078
:10028000010001000000000000000000010001006A
:100290000100010001000100010000000100010057
:1002A0000100010001000100010000000100010047
:1002B0000100010001000100010000000100010037
:1002C0000100010001000100010000000100010027
:1002D000010001000000000000000000010001001A
:1002E0000100010001000100010001000100010006
:1002F00001000100010001000100000001000100F7
:1003000001000100010001000000000001000100E7
:1003100001000100010001000000000001000100D7
:1003200001000100000000000000000000000000CB
:10033000000000002A2B2800000000000000000040
:100340000000000000000029000000002C1E3420E6
:10035000212224342627252E362D3738271E1F200C
:100360002122232425263333362E37381F04050651
:100370000708090A0B0C0D0E0F1011121314151695
:100380001718191A1B1C1D2F3130232D3504050693
:100390000708090A0B0C0D0E0F1011121314151675
:1003A0001718191A1B1C1D2F3130354C0000000086
:1003B000000000000000000000000000000000003D
:1003C000000000000000000000000000000000002D
:1003D0007E0F00D4FFFFFFC7000000781603640003
:1003E00075006D006200620065006C006C003600F4
:1003F000330000001A03640075006D0062006200A3
:1004000065006C006C005F006D0061006E00000014
:100410000403090409025B00030100A0320904007F
:100420000001030101000921110100012240000720
:10043000058103080001090401000203000000090E
:10044000211101000122220007058203200001077B
:100450000503032000010904020001030000000954
:100460002111010001227B000705840320000112F5
:100470000100020000000863DB63DB0100010200F1
:10048000010660FF0961A1010962150026FF0095C0
:1004900020750881020963150026FF009520750864
:1004A0009102C005010902A10185020901A100050F
:1004B0000919012908150025019508750181020512
:1004C00001093009311581257F95027508810609DA
:1004D000381581257F950175088106050C0A3802BB
:1004E0001581257F950175088106C0C00501098029
:1004F000A101850319012AB700150126B70095014E
:1005000075108100C0050C0901A101850419012A9B
:10051000A002150126A002950175108100C00501F9
:100520000906A101050719E029E71500250195082D
:10053000750181029501750881010507190029FFE0
:10054000150026FF00950675088100050819012988
:1005500005950575019102950175039101C011245E
:100560001FBECFEFDAE0DEBFCDBF11E0A0E0B1E00B
:10057000ECEDF9E402C005900D92AA39B107D9F764
:1005800022E0AAE9B1E001C01D92A337B207E1F76A
:100590000E9445120C94C3240C940000B0E0A0E02B
:1005A000E4EDF2E00C942B24AFE1B1E029E231E07C
:1005B000ED0161E070E08991E82FE295EF70F0E0E5
:1005C00011A18F70AB0101C0440F8A95EAF7942FF7
:1005D0009095912391A382A1842B82A32C173D0790
:1005E00051F7C7E1D1E04FE151E0BE0101E010E079
:1005F000FB018191BF01E82FE295EF70F0E0D1A0FF
:100600008F70780101C0EE0C8A95EAF79E2D9095C7
:100610009D2191A382A18E2982A34617570741F7F6
:1006200061E070E08991E82FE295EF70F0E0F1A0D1
:100630008F708B0102C0000F111F8A95E2F7902F77
:1006400090959F2191A382A1802B82A34C175D07D7
:1006500049F7C1E0D0E08D91E82FE295EF70F0E02E
:1006600061A18F70AE0101C0440F8A95EAF7942F03
:100670009095962391A382A1842B82A32A173B07EE
:1006800051F7CDB7DEB7E7E00C944724A4E0B0E023
:10069000ECE4F3E00C9421248C010B5F1F4F3FE14D
:1006A000E32E31E0F32E9C838B83712C882483947A
:1006B000912CAB81BC813C901D92BC83AB83F70134
:1006C00021917F01E22FE295EF70F0E031A12F70D0
:1006D000540101C0AA0C2A95EAF7232F2A2921A345
:1006E00022A16A2C6094262122A320EA2A95F1F700
:1006F000A7E1B1E0BA83A9836D0130E020E04B812E
:100700005C8141505109D6015D906D01652D629566
:100710006F7070E0DB0190966C91DA014C9070E0A4
:10072000B52DBF705B2E02C075956795BA95E2F73F
:1007300060FD96C0682D022E01C0660F0A94EAF78C
:10074000462ADA014C922F5F3F4F28303105D9F607
:1007500021A1622261A222A1A22AA2A221E03C91AF
:10076000331101C020E0722AEB81FC810E171F07B4
:1007700009F09FCF50E040E061E070E00A96A98167
:10078000BA812D91BA83A983E22FE295EF70F0E050
:10079000A1A12F707B0102C0EE0CFF1C2A95E2F78D
:1007A00097013A2F322B31A332A12095232322A384
:1007B00020EA2A95F1F79B01042E01C0220F0A942A
:1007C000EAF7922EB22EB094F8012FE1E22E21E04A
:1007D000F22E612C6F01A080D7018D907D01282D14
:1007E00022952F7030E0D90190962C9130E0A82D01
:1007F000AF7002C035952795AA95E2F720FD32C06B
:10080000292D2A2920833196D6012C91A21611F088
:10081000662463948E179F07E9F6E981FA81319780
:100820002081E22FE295EF70F0E0A1A12F707B0113
:1008300002C0EE0CFF1C2A95E2F73E2D30953A23BC
:1008400031A322A12E2922A376284F5F5F4F483083
:10085000510509F094CF872D2496E1E10C943D24B5
:1008600060E06ECF2B2D2A21CDCF84E0089581E06A
:10087000089581E008950E943904089508950E9422
:100880003E040895A5E0B0E0E8E4F4E00C942F24E1
:1008900049835A833091A10189819A81311119C00C
:1008A000662399F0222389F00E94300A182F682FBE
:1008B00089819A810E940D0A69817A81812F0E9423
:1008C00032192596E3E00C944B240E941E0A182F3F
:1008D000F3CF0E94300A69817A81F1CFFC01262F83
:1008E000408151816281738184810E944204089514
:1008F00081E00895CF93DF93EC0160E00E946E04E5
:10090000BE010E943F04DF91CF910895E1E0F0E045
:10091000DF0102C0AA0FBB1F6A95E2F7BD01DF012C
:1009200002C0AA0FBB1F4A95E2F76A2B01C0EE0F67
:100930002A95EAF7962F9823961302C08E2B0895D6
:10094000E0958E230895242F462F682F8091C001B3
:100950000E9486040E946D0908950E94C6110895A0
:100960000E94CA11089508950E94FF080E94B304CE
:100970002FEF84E39CE0215080409040E1F700C0DD
:10098000000008950E94B4040E94751C08950E94FE
:10099000B4040E94861C08950F931F93CF93DF9396
:1009A0008C0161E00E946E04EC01B8010E943B15CD
:1009B000811106C080E0DF91CF911F910F910895C2
:1009C000B801CE010E943B048823A1F3B801CE01F7
:1009D0000E94781A882371F3B801CE010E942A166A
:1009E000882341F3B801CE010E94EA19882311F34C
:1009F000F8018281882361F0CA35FDE5DF0701F146
:100A000058F4C115ECE5DE0791F0CE3DDC4591F0E0
:100A1000C8010E943704CFCFCC358DE5D80769F0E7
:100A200090F0C73ADD45A1F70E94C704C3CF0E94EA
:100A3000C204C0CF0E94E90EF7CF0E94230EE8CF78
:100A40000E942D0EE5CF0E94310EE2CF0E94A71B1F
:100A50000E94430508950E9447050E94AC1B08951B
:100A600008950E943005089581E008950E9434059C
:100A700008950895CF93C82F0E9431058C2F0E94AE
:100A80003605CF91089580E00E943A0508950E94AE
:100A9000D41A0E943A050895CF930E94D41AC82F01
:100AA00080919C018C1779F0C0939C010E94361CA8
:100AB00060939D0170939E0180939F019093A0018C
:100AC0008C2F0E943A05CF910895ABE0B0E0EBE6A1
:100AD000F5E00C9430244F83588769877A878B8799
:100AE00061110E946E0D1E821D8285E0FE01379607
:100AF000DE01119601900D928A95E1F78C819D811E
:100B0000892B61F449815A816B817C818D819E8121
:100B10000E94970C2B96E2E00C944C2489819A81D8
:100B200089238F3F79F3CE0101960E9478048111C9
:100B3000E9CFF0CFFC01808191810E945D0A089588
:100B4000CF93C82F8823C9F08238C9F40E94D41AE1
:100B500081FD13C089E30E94260D0E948F0D2FEFA7
:100B600087EE93E0215080409040E1F700C0000004
:100B700089E30E942E0D0E948F0DCF910895833836
:100B8000A1F40E94D41A80FDF8CF83E50E94260DBF
:100B90000E948F0D2FEF81EE94E021508040904015
:100BA000E1F700C0000083E5E4CF8438A1F40E949F
:100BB000D41A82FDE2CF87E40E94260D0E948F0D99
:100BC0002FEF81EE94E0215080409040E1F700C08B
:100BD000000087E4CECF8CEF8C0F813A90F46C2F1D
:100BE00080910001909101010E94381B882329F017
:100BF0008C2F0E942E0D0E948F0D8C2F0E94260D8F
:100C0000BACF80E28C0F883048F4C77081E001C011
:100C1000880FCA95EAF70E94510DADCFEBE5EC0FB6
:100C2000E33040F4F0E0E95AFE4F808190E00E940A
:100C3000FA1AA3CFE8E5EC0FE73150F4F0E0EE0F3D
:100C4000FF1FE75DFE4F808191810E94101B95CFB1
:100C5000C03F08F492CF8C2F0E94C9120E949C13AF
:100C60008CCF882309F455C0823879F40E94D41AB5
:100C700081FF4FC089E30E94260D0E948F0D89E3FA
:100C80000E942E0D0E948F0D0895833859F40E9402
:100C9000D41A80FF3EC083E50E94260D0E948F0D6E
:100CA00083E5EECF843859F40E94D41A82FF31C014
:100CB00087E40E94260D0E948F0D87E4E1CF9CEF10
:100CC000980F913AE8F290E2980F983050F48770BC
:100CD00091E001C0990F8A95EAF7892F0E94570D7C
:100CE000D1CF9BE5980F933028F490E080E00E94EC
:100CF000FA1A089598E5980F973128F490E080E06B
:100D00000E94101B0895803F20F00E9423130E9430
:100D10009C1308951F93CF93DF93182FEB010E942C
:100D2000A005209739F4812F0E943106DF91CF91E1
:100D30001F9108958FE99FE00197F1F700C000002F
:100D40002197EFCF70E060E0893311F460E570E047
:100D50000E948A060895882321F00E94510D0E9466
:100D60008F0D0895882321F00E94570D0E948F0D4A
:100D70000895B0E0A0E0EFEBF6E00C9429246C01BC
:100D8000D62FC72FFC011281F580F2949FE0F92243
:100D90000E94470DE82E8823B9F0E12E1123A1F01F
:100DA0008C2F807F803421F080E28D0F8830D0F04E
:100DB00080914D0282FF16C082E00E94F20D0E94D7
:100DC000470D91E0E82EE926BC2EB2948FE0B822C0
:100DD000FBE0FB1508F468C0EB2DF0E0EB53FB4D96
:100DE0000C941324E12CF0CF0C2F0F70C07F11F066
:100DF0000295007F112399F0002359F080E28D0FB6
:100E0000883010F0D11107C0802F0E94510D0E9430
:100E10008F0D8D2F41C0802F0E94610DF8CF8D2F37
:100E20000E943106002309F43FC080E28D0F883014
:100E300010F0D11104C0802F0E94570D03C0802FE5
:100E40000E94670D0E948F0D2FC00C2F0F70C07F66
:100E5000C03211F00295007FDD2381F0D13009F41A
:100E600063C0112309F46DC0FF2009F463C0F601CB
:100E7000858180FFCECF8F7085835CC080914D02CD
:100E800082FD33C0112359F0002329F0802F0E94E6
:100E9000510D0E948F0D80E00E94A00505C080E0EA
:100EA0000E9431060111C7CFEB2DE850FF0B34979C
:100EB00020F40E94D41A0E943A05EE2089F00E9484
:100EC000430D80FD0DC0F60112820E943D0D0E946F
:100ED0008109C6010E94BF080E943D0D0E948D0934
:100EE000CDB7DEB7E9E00C944524112389F0F11069
:100EF00006C00E94710D802B0E94AB06D5CF21E069
:100F0000F212F7CF0E94710D802B0E94780DCCCF8A
:100F1000F11006C00E94850D802F0E94B206C4CF3A
:100F200031E0F31609F2F6CF112331F085E08F1589
:100F300008F4BACF802FE0CF94E09F1508F4B4CF27
:100F4000EBCFFF2049F3D93349F4FFEF27EE33E02D
:100F5000F15020403040E1F700C000008D2F0E948A
:100F60003106A2CF8C2F86958695837069F08130EB
:100F700009F09ACF8D2F9C2F9370111102C090E031
:100F800080E00E94101B90CF8D2F9C2F9370111129
:100F900002C090E080E00E94FA1A86CF8D2F1123C4
:100FA00029F00E94C9120E949C137ECF0E94231335
:100FB000FACF8C2F837079F5111176CF4D2F429592
:100FC00046954770440F440F8D2F8F70042E01C03B
:100FD000880F0A94EAF72D2F2071D4FF07C02FE065
:100FE00030E001C0220F4A95EAF72095C695C695D4
:100FF000C370822BC23049F058F4C13019F00E94FE
:101000005B0952CF0E9455094FCF0E9461094CCF16
:101010000E94520949CF8695112311F08C2F8170BF
:10102000882309F441CF4D2F429546954770440FD0
:10103000440F8D2F8F70042E01C0880F0A94EAF799
:101040002D2F2071D4FF07C02FE030E001C0220F08
:101050004A95EAF72095C695C695C370822BC23093
:1010600049F058F4C13019F00E94AC091DCF0E941C
:10107000A6091ACF0E94B20917CF0E946D0914CF9A
:10108000CF70112329F08C2F0E9481098D2F34CF2E
:101090008D2F0E94B2068C2F0E948D0905CFD23F62
:1010A00051F160F4D03FB9F0D13F81F0112309F440
:1010B00049C0F110AECE8C2F8F7121C0D33F11F1FA
:1010C000D43FA1F780914D0282FD26C08C2F8F71F5
:1010D000112311F314C0112349F084E08F1508F493
:1010E000E3CE8C2F8F710E949A09DECE95E09F157A
:1010F00008F4DACEF6CF8C2F8F711111CDCF0E946C
:101100008109D2CE112329F08C2F8F710E9478098A
:10111000CBCE0E947409C8CE112349F0CF718C2F19
:101120000E94810963E08C2F0E94D40DBDCE81E026
:101130000E94F20DE1E0EF1508F0B6CE82E00E94C9
:10114000F20DB2CEF110FFCE8C2F8F71A5CF0F9381
:101150001F93CF93DF93EC01688179818A810E948C
:10116000680A8C010E94B8090E945109B801CE0199
:101170000E94B906DF91CF911F910F910895CF93EF
:10118000DF93EC018B819C81892B29F088819981E7
:1011900089238F3F51F4DF91CF910895CE010E94B2
:1011A000A708CE010E947A04F6CFCE010E94CC049B
:1011B0008111F4CF0E94470D882369F38A81882327
:1011C00051F380914D0282FFE6CF82E00E94F20D42
:1011D000E2CF90E080E00E94FA1A90E080E00E9466
:1011E000101B0E946E0D0E948F0D0E94B8130E946A
:1011F0009C1308950E94360D0E94E90808950E94EC
:101200005E0D0E94FA08089592959F70963091F0B5
:1012100058F4925F9F70923058F4803F19F030F488
:10122000883E30F481E008959A5FF4CF843FD1F393
:1012300080E00895883EB0F3813FD1F7F3CFFC0101
:1012400083819481892B29F08081918189238F3F2B
:1012500011F480E00895808191810E945D0A0E94CE
:1012600004090895A5E0B0E0E8E3F9E00C94302427
:101270002596E2E00C944C24A6E0B0E0E2E4F9E02C
:101280000C9430242696E2E00C944C2408950E949D
:10129000460908950E9447098093C1010E94E90808
:1012A000089508950E944A0908959091C101892BDB
:1012B0000E944A0908959091C10189230E944A0918
:1012C00008959091C10189270E944A0908950E94BA
:1012D000460908950E94670908950E946A0980934B
:1012E000C0010E94E908089580E00E946D090895F8
:1012F00091E001C0990F8A95EAF7892F0E946D0944
:10130000089521E030E001C0220F8A95EAF780912C
:10131000C001822B0E946D09089521E030E001C0D8
:10132000220F8A95EAF720958091C00182230E94BE
:101330006D09089521E030E001C0220F8A95EAF797
:101340008091C00182270E946D0908959091C0018B
:10135000892B0E946D0908959091C00189230E94F4
:101360006D0908959091C00189270E946D09089523
:101370000895262F277091E001C0990F2A95EAF76A
:1013800023E0769567952A95E1F7FB01EE0FFF1FA5
:10139000E60FF71FE40FF51F50E040E0682F70E004
:1013A0008191DF0111979B01042E02C0369527958C
:1013B0000A94E2F7217021952827292328272C93C6
:1013C0004F5F5F4F4330510559F70895A82FA7701D
:1013D00023E0969587952A95E1F7FC01EE0FFF1F14
:1013E000E80FF91FE60FF71F50E040E080E0219181
:1013F00030E00A2E02C0369527950A94E2F7217054
:101400003327042E01C0220F0A94EAF7822B4F5F84
:101410005F4F4330510559F70895262F9A3068F4ED
:10142000883058F438E0939FB0011124680F711D83
:1014300042EA51E0822F0E94B90908959A3070F46F
:10144000883060F448E0949F9001112462EA71E0D2
:10145000820F932F911D0E94E609089580E0089560
:10146000CF92DF92FF920F931F93CF93DF936C0184
:101470000091C0018091C101082BC7E0D0E010E0CD
:10148000FC2EC8010C2E02C0959587950A94E2F7B0
:1014900080FD0CC02197A0F7F12C8F2DDF91CF910B
:1014A0001F910F91FF90DF90CF900895B6018C2F80
:1014B0000E94A410019771F3F0CFCF93DF93EC015A
:1014C0000E94300ABE010E94A410DF91CF910895BE
:1014D0001F93CF93DF93EB019091A101992339F0F2
:1014E000CB010E945D0ADF91CF911F91089588235F
:1014F00069F0CB010E94300A182F682FCE010E949C
:101500000D0ABE01812F0E94A410EDCFCB010E94D5
:101510001E0A182FF6CF1F93CF93DF93C091C201FD
:1015200016E08091C3018C1304C0DF91CF911F910D
:101530000895D0E01C9FF0011D9FF00D1124EC5385
:10154000FE4F4081518162817381848195810E9427
:101550003C092196C770E5CF4091F4015091F50107
:101560006091F6017091F7018091F8019091F90175
:101570000E943C0908951F93CF93DF938091F90156
:10158000807F09F049C08091F601882309F444C0A6
:101590008091C201C091C3016091F4017091F50185
:1015A000A091F701B091F801D62FD72316E0C81704
:1015B00099F190E0109711F0DF3F19F401968770D0
:1015C000F6CF189F9001199F300D1124F901EC53AB
:1015D000FE4F41814713F2CF40814613EFCF428146
:1015E0004111ECCF438154814A1B5B0B483C5105B0
:1015F00028F78091F9018F7080618093F901F901DA
:10160000E753FE4F80818F708061808384EF91E08B
:101610000E94BF080E948B0ADF91CF911F9108950D
:10162000A1E1B0E0E6E1FBE00C9428248C0185E028
:10163000F801DE011D9601900D928A95E1F7F801FF
:10164000E28084EFC82E81E0D82E6091F70170917E
:10165000F8016115710509F44EC19091F4012091D2
:10166000F501892F82238F3F09F445C140815181C3
:10167000A380B480F090F601F501E61BF70BFF2084
:1016800009F4EAC08091F901382F307FE83CF10578
:1016900008F0A3C031116DC0FE2C251316C09413A1
:1016A00014C0E11012C08F7080618093F9010E9414
:1016B000AC0AC6010E94BF088091F901F801858338
:1016C0008F2D6196EAE00C944424A114B10429F012
:1016D000842F85238F3F09F027C180E0F82FF17018
:1016E000DF2E80FF3CC08091C2012091C30136E013
:1016F000821315C04D875E878D859E850E945D0A89
:10170000292F22952F702230F0F0243018F59F7089
:10171000F1F0F8019581907FD1F4D12C1EC090E0BA
:10172000389FF001399FF00D1124EC53FE4F618179
:10173000651306C06081641303C06281E6120FC0A6
:1017400001968770D5CF9F7011F0882331F3805EAA
:10175000883018F3C8010E94BF08FD2CB1CFEE20DD
:1017600009F4AECF8091F90181608093F901F12CE9
:10177000A7CF251306C0941304C0F801EE2009F486
:1017800087C0C8010E941F09882319F1EE2009F1C2
:101790008091F901803270F02091F4013091F501CF
:1017A00038872F831986BB86AA868C87CE01079639
:1017B0000E94BF0886E0F801A4EFB1E001900D920D
:1017C0008A95E1F70E94BB0A0E94AC0AFF24F394B9
:1017D00077CFC8010E94BF08F9CF311113C07A2D0D
:1017E000B98AA88A6E2D89890E94320984EF91E016
:1017F0000E94BF0886E0F60111928A95E9F70E94DF
:10180000AC0AB5CF25130FC094130DC0E1100BC067
:10181000F8018583C8010E94BF0886E0F601119295
:101820008A95E9F74DCFC8010E941F09882389F2E4
:10183000EE2079F28091F901803208F4BBCF20913B
:10184000F4013091F5013A8329831B82BD82AC8279
:101850008E83CE010196ACCFE83CF10508F03EC086
:10186000FE2CEE2009F4B5CF25132AC0941328C00E
:101870008091F90180FD1BC0982F907FC1F0F80185
:101880008583903F31F0982F907F905F8F70892BE8
:101890008583C8010E94BF0886E0F801A4EFB1E08B
:1018A00001900D928A95E1F70E94AC0A09CF86E07B
:1018B000F801A4EFB1E001900D928A95E1F700CF15
:1018C000C8010E941F09811175CF8091F9018160C3
:1018D0008093F901C8010E94BF08F2CE7A2DB98A1F
:1018E000A88A6E2D89890E94320986E0F60111923C
:1018F0008A95E9F7D9CFEE2009F46BCFC8010E9491
:101900001F09F82E882309F464CF86E0F801A4EFBC
:10191000B1E001900D928A95E1F784EF91E00E9489
:101920009A050E94BB0AC0CF81E08E25D7CEACE0DD
:10193000B0E0EDE9FCE00C942F244F8358876987D1
:101940007A878B879C87CE0107960E94100B88238D
:1019500069F08A859B85892B39F04F815885842FC2
:1019600085238F3F09F06BC016E05FC086E0FE0163
:101970003796DE01119601900D928A95E1F78A85DE
:101980009B85892B89F38F81988589238F3F61F30C
:101990002091C30130E0C9010196877099274091D9
:1019A000C2014817190671F40E94FF081092C30182
:1019B0001092C20186E0E4EFF1E0DF011D928A950A
:1019C000E9F7D2CF96E0929FD001939FB00D1124FA
:1019D000AC53BE4FFE01319601900D929A95E1F7FE
:1019E0008093C3010E948B0ABFCF819FC001112445
:1019F0008C539E4F0E94100B8823E9F0E091C201A6
:101A00001E9FF0011124EC53FE4F408151816281F1
:101A10007381848195810E943C098091C20190E08C
:101A20000196877099278093C2018091C20190919D
:101A3000C3018913DACF2C96E3E00C944B2469851B
:101A40007A858B859C850E943C098ECF682F80917A
:101A50000001909101010E946E1B0895682F8091F2
:101A60000001909101010E94711B08958091000175
:101A7000909101010E94741B089580910202859546
:101A800085958595089580910202877008959091BB
:101A90000202977081E009F480E0089580910D02C0
:101AA000089590910D02892B80930D0208958095E1
:101AB00090910D02982390930D02089510920D02BB
:101AC000089590910C02892B80930C0208958095C3
:101AD00090910C02982390930C02089510920C029E
:101AE000089580910302089508950E94740D089549
:101AF00090914D0292FF08C090910302981721F037
:101B0000809303020E94750D08958091030288233B
:101B100029F01092030280E00E94750D0895CF9382
:101B2000DF93E0910001F091010180910D0280832B
:101B3000E0910001F0910101808190910C02892BCC
:101B4000808390910302992381F0E0910001F0914C
:101B500001018081892B8083809100019091010196
:101B60000E94261B81110E94850DC0910001D09119
:101B7000010148E050E06AEF71E0CE010E946B2461
:101B8000892B59F088E0FE01AAEFB1E001900D9297
:101B90008A95E1F7CE010E94E11ADF91CF91089575
:101BA00008950E94D00D089590914D0292FF11C0AA
:101BB00098E0899F90011124622B609302020E9499
:101BC0008109809102028595859585950E94D10DA8
:101BD00008950E94810908951092020280E00E94F7
:101BE000D10D08959091020280958923809302027D
:101BF000282F277091F4282F082E000C330B9217F2
:101C0000130659F090914D0292FF07C08595859576
:101C100085950E948D090E94EC0D089590914D02CA
:101C200092FB222720F9281769F080FB92F9909304
:101C30004D0280914C0290914D020E94600E82E014
:101C40000E94F20D089580914D0282FB882780F951
:101C500091E089270E940E0E089581E00E940E0EE9
:101C6000089580E00E940E0E08956FEF7FEF90E0E0
:101C700080E00E94AD24089590E080E00E948924D5
:101C8000883E9E4F19F40E94D614089580E008956E
:101C900082E090E00E948124089583E090E00E9419
:101CA00081240895CF9384E090E00E948124C82F7E
:101CB00082E290E00E948124982F8C2FCF9108958A
:101CC000CF93C92F682F84E090E00E948F246C2F5F
:101CD00082E290E00E948F24CF910895AB01BC0175
:101CE0008FE090E00E94A1240895AB01BC0183E144
:101CF00090E00E94A124089560E070E0CB010E9472
:101D0000750E089560E070E0CB010E946E0E0E9497
:101D10007C0E089568EE7EEF90E080E00E94AD2496
:101D200060E082E090E00E948F2460E083E090E039
:101D30000E948F241092C10160E084E090E00E9434
:101D40008F2464E082E290E00E948F2460E085E0CE
:101D500090E00E948F2460E086E090E00E948F2453
:101D60006FEF87E090E00E948F2440E050E0BA01DE
:101D700088E090E00E94A12460E08DE090E00E9465
:101D80008F2440E050E0BA0188E190E00E94A12455
:101D900060E087E190E00E948F2440E050E0BA01CB
:101DA0008CE190E00E94A12470E060E080E290E08D
:101DB0000E94AD2440E050E0BA0188E190E00E942A
:101DC000A12480E00E94EF140E941E150E94820E42
:101DD00008950E948A0E0895682F8EE090E00E9478
:101DE0008F2408950E94361C60931E0270931F0278
:101DF000809320029093210260931A0270931B0239
:101E000080931C0290931D020895089508950E94E6
:101E1000060F089508950E940A0F08958EE891E133
:101E20000E94CA1A0E94050F0E94070F089581E0C0
:101E300008950E94170F0895089508950E941C0F99
:101E40000E941D0F08950E94AA110E94390508954D
:101E50000E94211C0E942E150E94D4110E94230F63
:101E60000E940B0F0895AAE0B0E0E9E3FFE00C94B4
:101E700028240E94E61180E1A82E82E0B82E750188
:101E800010E0F70101917F01812F0E94CD111F5FAA
:101E90001A3009F440C00817A1F38091220281FD95
:101EA0000E94D3110E94190FC82E10E0812F0E94AA
:101EB000CD11082FF50181915F01081731F1D02E66
:101EC000D826F12CEE24E3948D2D8E21B1F0CC2078
:101ED000A1F0FE821F8391E0802F8E2109F490E013
:101EE00098870E942A1C8160782F9A8789874E8163
:101EF0005F8168858A850E946505F394EE0CF8E0A1
:101F0000FF12E2CFF501319700831F5F1A3071F69F
:101F10000E94F20E20C00813C0CF0E942A1C8C0120
:101F200080910E0290910F0208171907A1F08FEF10
:101F300089838A831B820E942A1C8160782F9D835B
:101F40008C8349815A816B818D810E946505109334
:101F50000F0200930E020E94DA130E944C052A968B
:101F6000EAE00C944424CF93DF930E94A910EC0183
:101F7000811521E5920708F042C0811530E59307ED
:101F800008F09FC0883E910530F5803E910508F02D
:101F900094C0883A910588F4853A910508F086C086
:101FA0008130910509F489C0009709F486C004972F
:101FB00008F083C0D0E0C0E080C08F3B9105D0F72F
:101FC000C85AD0E0CC0FDD1FC65ADE4F0990D88129
:101FD000C02DD46472C0811540E2940750F4C1153D
:101FE00081E0D80708F069C0C03FD10518F3D0657B
:101FF00064C081159044F0F2DF70D06A5EC0811534
:1020000035E5930718F5811544E5940708F085C078
:10201000C11583E5D80708F06CC0C11522E5D207C9
:1020200008F462C0CE018370992721E030E002C03D
:10203000220F331F8A95E2F7C695C69580E2C89FA6
:10204000E0011124C22BD32BDC6837C0811539E5A0
:102050009307A8F4811548E5940708F063C0C115FB
:1020600086E5D80708F0A6CF8C2F0E944B11C82F09
:10207000D0E0DC2FCC27CC27DF71D0621EC08115C9
:102080002AE5920708F453C090568115904208F053
:1020900091CF8D2F8F710E944B1190E0982F882740
:1020A00088279F719C012C2BE901E7CFC55AD0E00E
:1020B000C857DE4FC881D0E0D064CE01DF91CF9108
:1020C00008958370992721E030E002C0220F331F6A
:1020D0008A95E2F7C695C69540E2C49FE0011124B7
:1020E000C22BD32BDD68E9CFDC2FCC27C16FD06AA0
:1020F000E4CFCE018370992721E030E002C0220FA7
:10210000331F8A95E2F7C695C69540E2C49FE00169
:102110001124C22BD32BDA68D0CFD82FCC27C46F91
:10212000D06ACBCFD82FCC27C06FD06AC6CF8F70E4
:102130000E944B1134E0D695C7953A95E1F7CF70E0
:102140009C2FEC01D069B9CF0E9432190E94B30FC5
:10215000089582389105B9F1B0F48133910509F4FD
:102160007DC048F48932910509F46DC08A32910529
:1021700009F47BC008958533910509F45FC0893364
:10218000910509F10895833E9105D9F138F4803E17
:10219000910529F1823E910579F10895863E9105D8
:1021A000D9F1873E910509F43EC0843E910541F581
:1021B00020914D0221FF24C080914C0284FD19C062
:1021C00087EE90E0089520914C02237009F05AC0E8
:1021D00020914D0223FF14C089E290E008952091E0
:1021E0004C0220FD38C030914D0230FF09C024FF61
:1021F00043C090E080E0089520914C0222FDF7CF8B
:10220000089520914C0222FD3AC030914D0230FDDC
:1022100039C024FFF5CFEDCF20914C0223FFF0CF42
:1022200024FDE7CFCDCF20914C0223FD2EC030916D
:102230004D0231FFEECF84EE90E0089520914C02E4
:1022400025FFDECFC9CF20914C0225FD21C0209172
:102250004D0223FFD5CF89E390E0D2CF20914C02ED
:1022600026FFCECF8AE290E0089520914C0226FF0F
:10227000C7CF81E390E0089583EE90E0089582EE69
:1022800090E0089580EE90E0089586EE90E0089545
:1022900085E390E0089590914C0292FF06C0282FAC
:1022A00028712830F9F4877F846093FF06C0282FB7
:1022B00028712831F1F4877E846120914D0220FF3E
:1022C00006C0382F38713830D9F4877F816021FFFC
:1022D00006C0282F28712831D1F4877E816194FDB2
:1022E000877E0895282F24712430F9F68B7F88602B
:1022F000DCCF282F2471243101F78B7E8861DDCF5C
:10230000382F3171313019F78E7F8860E0CF282F58
:102310002171213121F78E7E8861E1CF80E008951F
:102320000E94350E08950E94E6118FE39CE9019703
:10233000F1F700C000000E94E61180E00E94CD117C
:1023400080FF04C00E9490110E94751C08950E9495
:10235000931108950E943C0E811102C00E94E90E63
:102360000E94480E809322020E94520E90934D02CA
:1023700080934C020E94A7110E944D0E0E945209A8
:102380008091C0010E946A09089508950E94C511B4
:10239000089508950E94C9110895E82FF0E0E85AC1
:1023A000FD4F8081089508950E94CE02EEE4F2E090
:1023B000A8E5B2E011921D9282E0E835F807D1F766
:1023C0008AE00E94F9110E94AD040895CF938EE433
:1023D00092E00E944603282F4AE068E572E08EE40E
:1023E00092E00E94FA11C82F0E94B0048C2FCF9166
:1023F00008950895CF92DF92EF92FF920F931F936B
:10240000CF936C017B01042F222349F081E080935C
:1024100025020E942A1C9093240280932302C091DB
:102420002502C1110AC0C0E08C2FCF911F910F91DE
:10243000FF90EF90DF90CF900895809123029091CC
:1024400024020E94421C059770F310E0A801B60117
:10245000C7010E946B24892B41F0A801B601C70176
:102460000E94782410922502DFCFC0E0FBCF0E94AB
:102470005E1E0E94280F0E946B1E08950E94701E0F
:102480000E94330F0E948A1E08950E94C31B0E945F
:10249000441E0E940E0F0E9437120E943E120E949C
:1024A0001E0FFBCF80912C0280FF0DC060910701B1
:1024B00070E0660F771F6038710570F56115710562
:1024C00069F1862F089581FF07C06091070184E0BC
:1024D000689FB0011124EFCF6091070182FD0AC00F
:1024E00080912B028823A9F02091060160910701B9
:1024F000821710F088E0ECCF869FC001112433E0F2
:10250000880F991F3A95E1F7622F70E00E94FF2330
:10251000D2CF68E070E0D5CF8FE7089581E00895CD
:1025200080912C0280FF0CC06091030170E07595D2
:102530006795759567956115710549F1862F089521
:1025400081FF06C06091030170E075956795F3CF38
:102550006091030182FD0BC090912A029923A1F0A2
:102560006091020180910301961738F0682F70E0A6
:102570006038710500F38FE70895899FC001112429
:1025800070E00E94FF23F4CF61E070E0D7CF81E0DC
:102590000895803F31F40E94521281958093300259
:1025A0000895813F19F40E945212F8CF823F31F40E
:1025B0000E945212819580932F020895833F19F44F
:1025C0000E945212F8CF893F29F40E949012809302
:1025D000310208958A3F21F40E9490128195F7CF2D
:1025E0008B3F31F40E9490128195809332020895BE
:1025F0008C3F19F40E949012F8CF9CE0980F953010
:1026000070F4845F990B21E030E001C0220F8A95BD
:10261000EAF780912E02822B80932E0208958D3F3F
:1026200031F480912C02816080932C0208958E3FBA
:1026300021F480912C028260F7CF8F3FB9F780910F
:102640002C028460F1CF40912F02803F59F4809199
:10265000300287FF0DC01092300241110BC0109262
:102660002B0208C0813F81F48091300218169CF340
:10267000442381F08091310290913202892B09F03C
:102680005AC010922A020895823F49F447FFF0CFC2
:1026900010922F02809130028111ECCFE0CF833F66
:1026A00019F41416ACF3E4CF90913102893F29F468
:1026B0001916F4F610923102DBCF8A3F19F497FF16
:1026C000D7CFF8CF909132028B3F29F497FFD0CF2C
:1026D00010923202CDCF8C3F19F41916CCF3C8CF2B
:1026E0009CE0980F953090F4845F990B21E030E0E6
:1026F000B90102C0660F771F8A95E2F7CB0180957A
:1027000090912E02892380932E02B2CF8D3F31F417
:1027100080912C028E7F80932C02AACF8E3F21F4D1
:1027200080912C028D7FF7CF8F3F09F0A1CF809150
:102730002C028B7FF0CF08950E942A1C9C0190915F
:102740002F0280913002982B21F0309329022093A0
:1027500028029091310280913202982B21F030931F
:102760002702209326028DE292E00E94EC1A08953F
:1027700086E0EDE2F2E0DF011D928A95E9F7109222
:102780002B0210922A0210922C020895FC018281E1
:1027900081110EC0838181110BC08481811108C019
:1027A00091E08581811101C090E0892F81700895A9
:1027B00081E0FCCFA6E0B0E0E0EEF3E10C942F2442
:1027C00086E0EDE2F2E0DE01119601900D928A952D
:1027D000E1F710922F021092300210923102109203
:1027E00032028B819C81892B89F080912802909103
:1027F00029020E94421CAC0190912B029923C9F13D
:10280000809108018417150608F440C08D819E81CF
:10281000892B91F080912602909127020E94421C00
:10282000AC0190912A02992309F471C080910401AE
:102830008417150608F479C0BE016F5F7F4F8DE2E3
:1028400092E00E947B1B811105C08DE292E00E9404
:10285000C61381110E949C1386E0FE013196ADE201
:10286000B2E001900D928A95E1F72696E3E00C9490
:102870004B24209109018AE0289F900111242417FC
:10288000350720F69F5F90932B0202C09F3FD1F740
:102890001B81112359F00E9452129FEF11160CF464
:1028A00091E0899F802D112480932F021C81112398
:1028B00059F00E9452129FEF11160CF491E0899F7B
:1028C000802D11248093300230912F02332309F49C
:1028D0009DCF20913002222309F498CF45EB340399
:1028E000C0011124992359F090932F0245EB240342
:1028F00090011124332339F03093300287CF81E0E7
:1029000080932F02F3CF81E0809330027FCF20911C
:1029100005018AE0289F900111242417350708F04B
:102920008BCF9F5F90932A0202C09F3FD1F71D81FA
:10293000112359F00E9490129FEF11160CF491E0B0
:10294000899F802D1124809331021E81112359F01B
:102950000E9490129FEF11160CF491E0899F802D38
:1029600011248093320230913102332309F464CF71
:1029700020913202222309F45FCF45EB3403C001DA
:102980001124992359F09093310245EB24039001CF
:102990001124332339F0309332024ECF81E08093FB
:1029A0003102F3CF81E08093320246CF83E290E0A0
:1029B0000E948124833289F484E290E00E94812481
:1029C000833059F485E290E00E94812491E08530C3
:1029D00009F090E0892F8170089580E0FCCFCF93BB
:1029E000C82F6FEF811163E283E290E00E948F2491
:1029F0006FEFC11163E084E290E00E948F246FEFDB
:102A0000C11165E085E290E00E948F24CF91089586
:102A1000089586E290E00E948124682F70E090E0A3
:102A200080E008950895CF93C62F0E9412156C2F51
:102A300086E290E00E948F24CF91089580E00E946A
:102A4000EF1460E070E0CB010E9413150E94AC18F7
:102A50000E948F1981E00E94EF1408950E940815CA
:102A60000E9409150E9412150E94D614811102C0FD
:102A70000E941E150895CF93FB01C281CC2309F15A
:102A80009C0122513F452031310520F582510E94A1
:102A90009F19C0E08C2FCF91089581E00E94810999
:102AA00043E062E081E00E94A304F3CF81E00E9452
:102AB0008D0943E062E081E00E94A304EBCF82E055
:102AC000F6CF8031FFE59F0789F381319F45B9F348
:102AD000C1E0E0CF8031EFE59E07F9F281319F45FB
:102AE000C9F682E0DBCF2FEFFC0120830895EF923F
:102AF000FF920F931F93CF93DF93EC01062FE88192
:102B0000E150E33108F05DC0F0E0EF52FB4D0C9472
:102B1000132419828AE08A83602FCE010E94171D38
:102B2000CDB7DEB7E6E00C9448248981823069F0A5
:102B3000833071F08130D9F40E94361C0E94192430
:102B40006A837B838C839D83E7CF0E940915F6CF30
:102B50007E0182E0E80EF11C10E0812F0E94CD1171
:102B6000F70181937F011F5F1A30B9F7D5CF602F2E
:102B7000CE010E947315D0CF89818230C1F76A815E
:102B80007B818C819D810E9419240E941315C4CFE2
:102B90004B816A8189810E946E189827892798271E
:102BA0009D838C83B9CF2C813D8132272327322707
:102BB0004B816A8189810E949018AECF0E94AC1827
:102BC000ABCF8FEF8883A8CF0E9440198983A4CF11
:102BD0000E9442199827892798279A8389839CCF36
:102BE0006B8170E089819A81AE014C5F5F4F9827BD
:102BF000892798270E9445198FCF6B8170E08981C2
:102C00009A81AE014C5F5F4F9827892798270E94D1
:102C10006A1982CF0E948F197FCF0E945B18D6CF8E
:102C20006B8170E089819A81AE014C5F5F4F98277C
:102C3000892798270E94EA186FCF6B8170E08981FD
:102C40009A81AE014C5F5F4F9827892798270E9491
:102C50000E1962CFCF93DF93EC01FB0182818823B1
:102C600009F464C1C330FDE5DF07E0F5CA3F9CE528
:102C7000D90730F49E0122503C4524313105D8F566
:102C80000E94520E90934D0280934C02C231ECE5AB
:102C9000DE0709F41FC108F06EC0C9308CE5D80703
:102CA00009F4F2C008F03FC0C530ECE5DE0709F4D6
:102CB000DBC058F5C3308CE5D80709F4CDC008F067
:102CC000CFC080914C028160C230DC4509F4AEC0B7
:102CD00080914C0290914D020E94600E0E94FF086C
:102CE00080E009C0C53AEDE5DE0751F238F4C1369F
:102CF0009DE5D90729F2DF91CF9108959E012D5AC4
:102D00003D4523303105B8F7BBCF80914C0280623E
:102D1000C730FCE5DF0709F489C008F4B1C0809131
:102D20004C02806483C0CD309CE5D90709F4BAC059
:102D300070F480914C028E7FCB30FCE5DF0709F404
:102D400075C008F4A7C080914C028D7F6FC0CF3052
:102D50009CE5D90709F4B6C008F4A8C0C031FCE569
:102D6000DF0709F4B3C0C131DC4509F0B1CF809170
:102D70004C028F7B5BC0CF3F9CE5D90709F4B4C000
:102D800098F5CA3FFCE5DF0709F472C0B8F4C43116
:102D90009CE5D90709F4B6C008F4A2C0C531DC45EA
:102DA00009F096CF80914C0282FB992790F921E09F
:102DB000922790FB82F990FB83F938C0CC3F8CE5D9
:102DC000D80709F477C008F457C0CD3FECE5DE071B
:102DD00009F474C080914D028360CE3FDC4509F058
:102DE00077CF80934D0274CFC1368DE5D80709F4B3
:102DF00096C068F4C130EDE5DE0709F48CC008F434
:102E000077C0C230DD4509F063CF80E085C0CD3AA0
:102E10009DE5D907E9F068F490914C02892F8E7FE7
:102E200090FF8160C53ADD4509F052CF80934C0296
:102E30004FCFCE3A8DE5D80789F1CF3ADD4509F07D
:102E400047CF90914D02892F877F93FF8860C9CF2C
:102E500080914D028860C5CF80914C028260E6CFA0
:102E600080914C028460E2CF80914C028860DECF7A
:102E700080914D028160B5CF80914D028260B1CFCB
:102E800080914C028061D2CF0E94FF0880914C0259
:102E90008068CCCF80914C028C60C8CF80914D026D
:102EA000877F9FCF80914C028B7FC0CF80914C0257
:102EB000877FBCCF80914D028E7F93CF80914D0252
:102EC0008D7F8FCF80914C028F7EB0CF80914C024E
:102ED0008F7DACCF0E94FF0880914C028F77A6CFE8
:102EE00080914C02837FA2CF80914D028C7F79CF5D
:102EF00080914D02982F909591708E7F892B90FB39
:102F000081F96FCF0E94FF0890914C02892F97FBA7
:102F100087F980588BCF81E00E94EC0ED9CE90913A
:102F20004C02892F8F7E94FF806180CF81E0E3CEB9
:102F3000B0E0A0E0EEE9F7E10C942B24E82FF0E0FC
:102F4000E45DFC4FD490282F26952695269530E0F9
:102F5000F901E453FC4F0491877010E0082E02C081
:102F6000159507950A94E2F701701127F901E454C9
:102F7000FC4FE490F12C082E02C0F594E7940A94DB
:102F8000E2F791E0E922FF24F901E455FC4FC491F6
:102F9000D0E002C0D595C7958A95E2F7C170DD27CC
:102FA0000115110519F081EE0E94A005E114F1044C
:102FB00019F086EE0E94A0058D2D0E94A206E11454
:102FC000F10419F086EE0E9431060115110519F081
:102FD00081EE0E943106CD2B19F08CE20E94A206F0
:102FE000CDB7DEB7E7E00C944724EF92FF920F9342
:102FF0001F93CF93DF93EC01162F0AE0888188237B
:1030000009F454C0813009F04EC08981813099F4AF
:103010007E0122E0E20EF11C8A810E94A206E701F5
:103020002196812F815050F3EFE9FFE03197F1F7BE
:1030300000C00000F7CF823041F47E0182E0E80E4C
:10304000F11C8A810E94A005EACF833041F47E0101
:10305000E2E0EE0EF11C8A810E943106E0CF84305E
:1030600011F02196DDCF2A81229690E080E0AE011A
:103070004F5F5F4F2053330B2A30310548F00197E3
:1030800078F2EFE9FFE03197F1F700C00000F7CFE9
:10309000089FB001099F700D1124C901860F971F69
:1030A0002981EA01E4CF0E949817BACFCDB7DEB7E5
:1030B000E6E00C94482484E0089590E1699FB00113
:1030C000112450E0440F551F640F751F90EA899F2B
:1030D000600D711D1124CB01879608950F931F93E6
:1030E000CF93DF938430C8F46A30B8F44830A8F442
:1030F0000E945D188C010E948124C82FD0E0DC2F33
:10310000CC27C80101960E9481249E01282BC90169
:10311000DF91CF911F910F91089590E080E0F8CF5B
:103120000F931F93CF93DF93122F032F843078F4E4
:103130006A3068F4483058F40E945D18EC01602F42
:103140000E948F24612FCE0101960E948F24DF916F
:10315000CF911F910F910895B0E0A0E0E2EBF8E16C
:103160000C9429249CEAC92E90E0D92ED0E0C0E02E
:103170007601B12C20C00E94350421E030E08C178C
:103180001D0641F03CF0F801EE0FFF1FEE0DFF1D94
:1031900025913491402F6B2D8C2F0E9490180F5F3A
:1031A0001F4F0830110539F780E1E80EF11CB39488
:1031B0008AE0B81619F010E000E0DDCF219680EA31
:1031C000C80ED11CC430D10599F6CDB7DEB7E9E001
:1031D0000C944524EF92FF920F931F93CF93DF93AC
:1031E000EC018A017C01E60EF71ECE018796CE1512
:1031F000DF0529F4CDB7DEB7E6E00C944824C038EB
:1032000022E0D20740F40E948124F80180830F5FFE
:103210001F4F2196EACFF8011082F9CFB0E0A0E06D
:10322000E4E1F9E10C942A247C016A018C01060F87
:10323000171FEC01CE018796C017D10729F4CDB72F
:10324000DEB7E8E00C944624C03822E0D20740F410
:10325000FE01EE19FF09EC0DFD1D60810E948F2417
:103260002196E8CF462F843040F47A3030F468302D
:1032700020F4672F0E946E18089590E080E0089572
:1032800080E1089589E591E00895EF92FF920F9310
:103290001F93CF93DF93EC018A017C01E60EF71EAA
:1032A000CE0189559D4FCE15DF0529F4CDB7DEB788
:1032B000E6E00C944824C93521E0D20740F40E948E
:1032C0008124F80180830F5F1F4F2196E9CFF80119
:1032D0001082F9CFB0E0A0E0E0E7F9E10C942A24F5
:1032E0007C016A018C01060F171FEC01CE01895584
:1032F0009D4FC017D10729F4CDB7DEB7E8E00C9495
:103300004624C93521E0D20740F4FE01EE19FF0939
:10331000EC0DFD1D60810E948F242196E7CFCF9395
:10332000DF93C7EAD2E060E0CE010E948F242196AD
:10333000C11584E0D807B9F7DF91CF910895A4E0D3
:10334000B0E0E5EAF9E10C942B24F82E8FE08F151C
:1033500048F18FEF93E00E948124811123C007EA96
:1033600012E0F11023C019821A821B821C82DD2414
:10337000D39478018FEFE81AF80AC8010E948124DB
:1033800089831A82882371F09FEF980F9330D8F4C5
:103390008A83D9820E5F1F4FC7010E9481248B83CD
:1033A000811112C02496E7E00C944724011584E0B3
:1033B0001807C1F3C8010E948124811101C0FA9449
:1033C0000F5F1F4FCECF870160E0CE0101960E94B4
:1033D000F517CFCFCF93DF93EB0186319C4511F5E5
:1033E0000E944E0D9A81992399F08A7A91E009F40E
:1033F00090E090933302811109C089E20E94260D6A
:103400000E948F0D80E0DF91CF91089585E3F6CF84
:1034100080913302811104C089E20E942E0DF0CF09
:1034200085E3FBCF81E0EFCF0F931F93CF93DF9323
:10343000C42FD22FFC0182818823C9F04093360229
:103440000E942A1C909335028093340280E28C0FF4
:10345000883040F4C77081E001C0880FCA95EAF750
:103460000E94AB06DF91CF911F910F9108951091AB
:103470003602141332C080913402909135020E94BA
:10348000421C883C910548F5C0E2CD0F1D17B9F0EC
:1034900080E2810F883040F4177081E001C0880F0E
:1034A0001A95EAF70E94B206C83048F481E09D2FD1
:1034B000977001C0880F9A95EAF70E94AB06802F9B
:1034C0000E94A206C83070F6D77081E001C0880F54
:1034D000DA95EAF70E94B206C5CF80E28C0F8830F9
:1034E00008F6C77081E001C0880FCA95EAF7F2CFED
:1034F0000F939C01CB01233F4CE5340759F1A8F40D
:10350000283DFCE53F0701F1293D4CE53407D1F1A9
:10351000273D3C4591F406E221EE41EE67ED7CE566
:103520000E94141A80E00F910895253FFCE53F07A3
:10353000E9F0B0F0263F3C45F9F0FC018281882398
:1035400039F110923602EFCF07E225EE45EE68ED35
:103550007CE5E6CF06E221EE40EE63EF7CE5E0CFCE
:1035600007E225EE44EE64EF7CE5DACF06E221EED9
:1035700042EE65EF7CE5D4CF07E225EE46EE66EF3E
:103580007CE5CECF08E221E045EE69ED7CE5C8CFD1
:1035900081E0C9CF90939B0180939A010895909305
:1035A0003C0280933B020895E0913B02F0913C0283
:1035B000309729F00190F081E02D0995089580E081
:1035C0000895E0913B02F0913C02309721F0028097
:1035D000F381E02D09950895E0913B02F0913C02C2
:1035E000309739F022E0DC012C930480F581E02D46
:1035F000099508952091390230913A022817390728
:1036000071F090933A0280933902E0913B02F0917D
:103610003C02309721F00680F781E02D099508954E
:1036200020913702309138022817390771F09093B2
:10363000380280933702E0913B02F0913C023097D0
:1036400021F00084F185E02D099508959C012E5FFD
:103650003F4FAC01485F5F4F80E02417350709F406
:103660000895F90191919F019923B9F38F5FF5CFE7
:10367000662349F0FC01329608962191261729F01D
:10368000E817F907D1F780E0089581E008959C01DB
:10369000FC0132969FEF80E04191461751F09F3F29
:1036A00019F4411101C0982F8F5F8630A9F79F3F11
:1036B00009F40895290F311D97FD3A95F9016283A8
:1036C0000895FC01329608962191261303C0DF016C
:1036D00011971C92E817F907B9F708950E94471B44
:1036E00008950E94611B0895029626E0FC01119244
:1036F0002A95E9F7089546E050E00E946B2421E006
:10370000892B09F420E0822F089508950E94851BDB
:103710000895811106C081E080933D020E94861BBE
:10372000089582E0F9CF83E080933D020E94861BDA
:1037300008950E94891B089581E080933D020E94B4
:10374000861B08950E949C1B0895089508950E9469
:10375000A61B0895089508950E94A51B0895CF9370
:103760000E94AA1B0E94E6110E94AB1BC0E08C2F96
:103770000E94CD11811105C0CF5FCA30C1F7CF9132
:10378000089581E0FCCF85B7806885BF85B78068E4
:1037900085BF08951F921FB61F9211248F939F9388
:1037A000AF93BF9380913E02811113C0809162025A
:1037B00090916302A0916402B09165024196A11DAF
:1037C000B11D8093620290936302A0936402B09350
:1037D0006502BF91AF919F918F911F901FBE1F9067
:1037E000189580916A02843031F10E94260510926A
:1037F0003E0288E190E020E40FB6F894A89580930B
:1038000060000FBE2093600083B7817F846083BF18
:1038100083B7816083BF7894889583B78E7F83BF99
:103820000FB6F894A895809160008861809360003D
:10383000109260000FBE08950E94FF080E942B05A1
:10384000089582E084BD93E095BD9AEF97BD809383
:103850006E0008952FB7F8948091620290916302F0
:10386000A0916402B09165022FBF08952FB7F8941C
:10387000609162027091630280916402909165028E
:103880002FBF08959C014FB7F894809162029091E8
:103890006302A0916402B09165024FBF821B930B3B
:1038A000089578941F921FB61F9211248F939F93AF
:1038B000AF93BF938091620290916302A0916402E2
:1038C000B09165020196A11DB11D80936202909393
:1038D0006302A0936402B0936502BF91AF919F9180
:1038E0008F911F901FBE1F90189587E797E79093C1
:1038F00001088093000888E19AE00FB6F894A89533
:10390000809360000FBE90936000FFCF88E19AE043
:103910000FB6F894A895809360000FBE9093600056
:10392000FFCF80914A02089508959C0184E080931E
:10393000E9009FEF8091E800915085FD06C085ED7C
:103940008A95F1F700009111F5CF8091E80085FF8D
:103950000CC050E040E066E070E0C9010E94291F01
:103960008091E8008E778093E8000895CF93DF93ED
:10397000EC0181E08093E9008FEF9091E8008150A5
:1039800095FD06C095ED9A95F1F700008111F5CFF0
:103990008091E80085FF14C050E040E068E070E0EE
:1039A000CE010E94291F8091E8008E778093E80065
:1039B00088E0FE01A2E4B2E001900D928A95E1F761
:1039C000DF91CF91089580933F02709341026093FD
:1039D000400280916A028430F9F48093E9008FEF0D
:1039E0009091E800815095FD06C095ED9A95F1F70C
:1039F00000008111F5CF8091E80085FF0DC050E0F7
:103A000040E063E070E08FE392E00E94291F809124
:103A1000E8008E778093E8000895BC0184E00E945E
:103A2000E31C0895BC0183E00E94E31C0895CF933A
:103A3000FC01603221F580916A02843001F5C09169
:103A4000E900CF702091EC00922F917020FD90E85A
:103A5000C92B82E08093E9008091E80080FF0CC0D0
:103A600050E040E060E270E0CF010E94291F8091A9
:103A7000E8008E778093E800CF70C093E900CF9183
:103A8000089580916902811109C00E9408210E9455
:103A900065218091E20084608093E2000895109295
:103AA000690208950E949C1B08956091660281E05E
:103AB000611101C080E00E94931B089590916A02F9
:103AC00081E0943009F080E0609166020E94991BC9
:103AD000089542E061EC81E00E94842042E261ECC2
:103AE00084E00E94842042E261EC82E00E94842013
:103AF00042E260EC83E00E94842090916A0281E0BF
:103B0000943009F080E0609166020E94891B08955C
:103B100080916C02833009F463C030F48130E1F1AC
:103B2000823009F4A0C008958A3009F48CC08B302B
:103B300009F471C0893009F052C080916B02813262
:103B400009F04DC080916F0290917002009719F0BA
:103B5000029709F044C08091E800877F8093E800D5
:103B60008091E80082FF37C09091F3008091F200CD
:103B7000029731F48091F100813011F0863021F408
:103B80008091F10080934A028091E8008B778093C6
:103B9000E8000E94B82023C080916B02813AF9F4BA
:103BA0008091E800877F8093E80080916F02909178
:103BB0007002892B61F468E082E492E070E00E9478
:103BC000C71F8091E8008B778093E800089560E03C
:103BD00090E080E0F3CF80916A028111C1CF089517
:103BE00080916B02813AD9F780916F0290917002B7
:103BF000892BA9F78091E800877F8093E800809166
:103C0000E80080FFFCCF809116018093F100809145
:103C1000E8008E77BCCF80916B02813201F78091F2
:103C20006F0290917002892BD1F68091E800877F16
:103C30008093E8000E94B82080916D028093160165
:103C40000E94FF08089580916B02813241F68091B5
:103C5000E800877F8093E8000E94B82080916E0280
:103C600080934B02089580916B02813A09F0B7CF9F
:103C70008091E800877F8093E8008091E80080FFD2
:103C8000FCCF80914B02C1CF84B7877F84BF0FB632
:103C9000F894A895809160008861809360001092EC
:103CA00060000FBE80E890E00FB6F894809361004A
:103CB000909361000FBE0E94A21B08950E940821EC
:103CC0000E946521E2EEF0E0808184608083789438
:103CD0000E94E42308958AE091E00E94CF1A08959B
:103CE00080916A02853031F480916A02853019F042
:103CF0000E941C1C08950E94F11B80916802882379
:103D000099F30E94AF1B882379F30E94131F0E942E
:103D1000FF08EACFA0E2B0E0E0E9FEE10C94302435
:103D200080916A02843009F583E08093E9008091F4
:103D3000E80082FF1AC08091E80090E085FF09C08A
:103D400050E040E060E270E0CE0101960E94781FF2
:103D500091E08091E8008B778093E800992329F027
:103D600060E2CE0101960E947715A096E2E00C94E5
:103D70004C240E94BC1E0895292F3327233031057F
:103D800021F168F42130310509F443C022303105B6
:103D900009F444C090E080E030E020E026C0213209
:103DA000310551F122323105A9F76330710590F7E1
:103DB000FB01EE0FFF1FE257FE4F20813181655757
:103DC0007E4FFB01808190E010C0992781309105E2
:103DD00081F0009729F00297E9F6ECEDF3E002C0DC
:103DE000E0E1F4E0849190E09F01FA0131832083C7
:103DF0000895E4EFF3E0F6CF6330710558F6660FEF
:103E0000771FFB01EC56FE4F2081318189E090E065
:103E1000ECCF82E190E02FE634E0E7CF8BE590E055
:103E200024E134E0E2CF80E189BD82E189BD09B4BB
:103E300000FEFDCF8091D8008F7D8093D8008091C7
:103E4000E00082608093E0008091E00081FDFCCF83
:103E50000895AF92BF92CF92DF92FF920F931F937C
:103E6000CF93DF936C01EB018A010E94D720F82EDB
:103E7000811123C00115110539F0F801808191816C
:103E8000C81BD90BC80ED91EB12CA12C2097A9F0A4
:103E90008091E80085FD22C08091E8008E778093B4
:103EA000E80001151105A1F0F80180819181A80EAB
:103EB000B91EB182A08285E0F82E8F2DDF91CF91BF
:103EC0001F910F91FF90DF90CF90BF90AF9008951A
:103ED0000E94D7208823D1F2F82EEFCFF6018191EE
:103EE0006F018093F1002197FFEFAF1ABF0ACECF89
:103EF000AF92BF92CF92DF92FF920F931F93CF9317
:103F0000DF936C01EB018A010E94D720F82E81110A
:103F100023C00115110539F0F80180819181C81B7A
:103F2000D90BC80ED91EB12CA12C2097A9F08091D5
:103F3000E80085FD22C08091E8008B778093E8003F
:103F400001151105A1F0F80180819181A80EB91E1B
:103F5000B182A08285E0F82E8F2DDF91CF911F9145
:103F60000F91FF90DF90CF90BF90AF9008950E9487
:103F7000D7208823D1F2F82EEFCF8091F100F601FF
:103F800081936F012197FFEFAF1ABF0ACECFFC01DB
:103F9000809171029091720286179707A0F06115C7
:103FA000710529F49091E8009E779093E80090E0E5
:103FB0006115710551F4911108C08091E80082FFEC
:103FC00034C080E00895BC01F2CF80916A0288235A
:103FD000C1F18530C1F18091E80083FD30C080914E
:103FE000E80082FDEACF8091E80080FFE1CF809178
:103FF000F3002091F200382F6115710519F0283077
:10400000310558F091E02830310509F090E0209119
:10401000E8002E772093E800CBCF81918093F100C8
:10402000615071092F5F3F4FE7CF80916A0288236B
:1040300041F0853041F08091E80083FFBECF81E000
:10404000089582E0089583E00895FC018091710253
:104050009091720286179707A0F06115710529F4F7
:104060008091E8008E778093E80090E061157105FB
:1040700051F4911108C08091E80082FF35C080E0C2
:104080000895BC01F2CF80916A028823C9F185307E
:10409000C9F18091E80083FD31C08091E80082FD84
:1040A000EACF8091E80080FFE1CF8091F30020917A
:1040B000F200382F6115710519F02830310558F0DC
:1040C00091E02830310509F090E08091E8008E778A
:1040D0008093E800CBCF84918093F10031966150BA
:1040E00071092F5F3F4FE6CF80916A02882341F02C
:1040F000853041F08091E80083FFBDCF81E00895D5
:1041000082E0089583E00895982F973028F08F700B
:104110008093E90081E008959093E900242F762FA1
:1041200050E0981731F07091EC002091ED00509123
:10413000F00021FD02C09F5FE8CF3091EB003E7F91
:104140003093EB003091ED003D7F3093ED003091E6
:10415000EB0031603093EB007093EC002093ED00A6
:104160005093F0002091EE0027FDE5CF80E0089508
:1041700080916B0287FF13C08091E80082FF06C028
:104180008091E8008B778093E80004C080916A02F8
:104190008111F2CF089580916A028823D9F380912A
:1041A000E80080FFF8CF8091E8008E77ECCF209177
:1041B000E4003091E50095E6A9012091EC00822F02
:1041C000817020FF06C08091E80080FF06C080E07B
:1041D00008952091E80022FD1AC080916A02882388
:1041E00089F0853089F08091EB0085FD0FC020912A
:1041F000E4003091E50042175307F9F29150E1F6DF
:1042000084E0089582E0089583E0089581E00895B0
:104210000E9477210E947F21E0EEF0E080818160A2
:104220008083E8EDF0E080818F77808319BCA7ED73
:10423000B0E08C918E7F8C9380818F7E80831092F2
:10424000690208950F931F93CF93DF930E94772104
:104250000E947F21C8EDD0E088818F778883888194
:104260008068888388818F7D888319BC10926A0258
:1042700010926602109268021092670200EE10E03F
:10428000F80180818B7F808388818160888342E010
:1042900060E080E00E948420E1EEF0E080818E7F8B
:1042A0008083E2EEF0E0808181608083808188609D
:1042B0008083F80180818E7F8083888180618883FC
:1042C000DF91CF911F910F910895E8EDF0E080818B
:1042D0008F7E8083E7EDF0E080818160808384E0E1
:1042E00082BF81E0809369020E9422210895E8ED57
:1042F000F0E080818E7F80831092E200089510921A
:10430000DA001092E10008951F920F920FB60F92FB
:1043100011242F933F934F935F936F937F938F93CA
:104320009F93AF93BF93EF93FF938091E10082FF40
:104330000BC08091E20082FF07C08091E1008B7F7B
:104340008093E1000E94E3238091DA0080FF19C08E
:104350008091D80080FF15C08091DA008E7F809315
:10436000DA008091D90080FF96C080E189BD82E1AA
:1043700089BD09B400FEFDCF81E080936A020E94EE
:10438000411D8091E10080FF19C08091E20080FF13
:1043900015C08091E2008E7F8093E2008091E20060
:1043A00080618093E2008091D80080628093D80081
:1043B00019BC85E080936A020E94551D8091E1003E
:1043C00084FF2BC08091E20084FF27C080E189BD7B
:1043D00082E189BD89B5982F917080FFFBCF8091D4
:1043E000D8008F7D8093D8008091E1008F7E8093EC
:1043F000E1008091E2008F7E8093E2008091E200F4
:1044000081608093E20080916602882309F449C0AC
:1044100084E080936A020E945E1D8091E10083FF28
:1044200029C08091E20083FF25C08091E100877F51
:104430008093E10082E080936A021092660280918C
:10444000E1008E7F8093E1008091E2008E7F809377
:10445000E2008091E20080618093E20042E060E04F
:1044600080E00E9484208091F00088608093F000BA
:104470000E94521DFF91EF91BF91AF919F918F913B
:104480007F916F915F914F913F912F910F900FBE50
:104490000F901F90189519BC10926A020E944F1D30
:1044A00070CF8091E30087FD93E090936A02B3CFD1
:1044B0001F920F920FB60F9211242F933F934F9399
:1044C0005F936F937F938F939F93AF93BF93CF939C
:1044D000DF93EF93FF93D091E900DF708091EC00C0
:1044E000C82FC17080FDC0E81092E9008091F000F3
:1044F000877F8093F00078940E949C221092E900BC
:104500008091F00088608093F000CD2BCF70C09335
:10451000E900FF91EF91DF91CF91BF91AF919F9112
:104520008F917F916F915F914F913F912F910F905C
:104530000FBE0F901F901895AAE2B0E0E2EAF2E2F7
:104540000C942F248BE692E02091F100FC01219342
:10455000CF01F2E083379F07B9F70E94881D809151
:10456000E80083FF1EC180916B0290916C029A302B
:1045700008F017C1E92FF0E0EC51FB4D0C94132427
:10458000803899F0823809F00CC180916F028F70E9
:10459000873008F006C18093E9008091EB0085FB2D
:1045A000882780F91092E90006C0809167029091F7
:1045B0006802911182609091E800977F9093E800E3
:1045C0008093F1001092F1008091E8008E77E5C0B1
:1045D000882309F4D3C0823009F0E3C080916D02D2
:1045E0008111D6C080916F028F702FEF280F263077
:1045F00008F0D7C08093E9002091EB0020FFC8C0ED
:10460000933031F48091EB0080628093EB00C0C066
:104610009091EB0090619093EB0021E030E001C0BD
:10462000220F8A95EAF72093EA001092EA0080911F
:10463000EB008860EACF8111B4C010916D021F7742
:104640008091E3008078812B8093E3008091E800E3
:10465000877F8093E8000E94B8208091E80080FF67
:10466000FCCF8091E30080688093E30082E0111129
:1046700083E080936A0295C08058823008F091C030
:1046800080916D0290916E028C3D23E09207A1F51E
:1046900083E08A838AE289834FB7F894DE01139618
:1046A00020E03EE051E2E32FF0E050935700E49128
:1046B00020FF03C0E295EF703F5FEF708E2F90E018
:1046C000EA30C0F0C7968D939D932F5F243159F740
:1046D0004FBF8091E800877F8093E8006AE270E036
:1046E000CE0101960E94C71F8091E8008B778093CE
:1046F000E80057C0C096E7CF60916F0270917002DA
:10470000AE014F5F5F4F0E94B91EBC01892B09F4B7
:1047100048C09091E800977F9093E80089819A8142
:104720000E942520E1CF8038E1F58091E800877F65
:104730008093E800809166028093F10045CF81115B
:1047400030C090916D02923060F58091E800877FD3
:104750008093E800909366020E94B82080916602E0
:10476000882311F084E005C08091E30087FDFACF33
:1047700081E080936A020E94691D13C080916D02DE
:10478000813079F481E0933009F080E08093680211
:104790001092E9008091E800877F8093E8000E94F2
:1047A000B8208091E80083FF0AC08091E800877FED
:1047B0008093E8008091EB0080628093EB00AA96E2
:1047C000E3E00C944B240895CF9380916A028823F0
:1047D000A1F0C091E900CF709091EC00892F817019
:1047E00090FD80E8C82B1092E9008091E80083FDDD
:1047F0000E949C22CF70C093E900CF91089597FB4F
:10480000072E16F4009407D077FD09D00E94572494
:1048100007FC05D03EF4909581959F4F08957095C3
:1048200061957F4F0895EE0FFF1F0590F491E02DE5
:104830000994692796276927782787277827089575
:104840002F923F924F925F926F927F928F929F92A0
:10485000AF92BF92CF92DF92EF92FF920F931F938E
:10486000CF93DF93CDB7DEB7CA1BDB0B0FB6F8943F
:10487000DEBF0FBECDBF09942A88398848885F847F
:104880006E847D848C849B84AA84B984C884DF80F0
:10489000EE80FD800C811B81AA81B981CE0FD11DD4
:1048A0000FB6F894DEBF0FBECDBFED010895AA1B71
:1048B000BB1B51E107C0AA1FBB1FA617B70710F00B
:1048C000A61BB70B881F991F5A95A9F7809590953D
:1048D000BC01CD010895FB01DC0104C08D91019064
:1048E000801921F441505040C8F7881B990B089556
:1048F000FB01DC0102C001900D9241505040D8F7FD
:104900000895F999FECF92BD81BDF89A992780B597
:104910000895A8E1B0E042E050E00C94B524262FC1
:10492000F999FECF92BD81BDF89A019700B40216A5
:1049300039F01FBA20BD0FB6F894FA9AF99A0FBE53
:1049400008950396272F0E9490240E948F24252FDC
:104950000E949024242F0C9490240196272F0E94CB
:1049600090240C948F24DC01CB01FC01F999FECF3B
:1049700006C0F2BDE1BDF89A319600B40D924150E7
:104980005040B8F70895F894FFCFF406F4062507D1
:104990002507B207CE0754075407D90740084F0828
:1049A0004F0889159515BC15C815D315DE15E115E9
:1049B000E115E115E115E115E415E815F015FD1512
:1049C0000A160D1610161D16C022E822D123E82261
:0C49D000D1231B233C23D12393239F23DE
:1049DC000402280850011E0A1401911CB61C951CD7
:1049EC00121D0D1D941C01F4F5F6F7313332C691EE
:1049FC00909466970000000000E200E900EA00B520
:104A0C0000B600B700CD008301CC008A019201945E
:104A1C00012102230224022502260227022A02B3C4
:104A2C0000B4006F007000818283E200E900EA00AC
:104A3C00B500B600B700CD008301CC008A0192010D
:104A4C0094012102230224022502260227022A02B3
:104A5C00B300B4006F00700081828340227B1E057E
:0A4A6C008104A30426043F045F0444
:00000001FF
