:100000000C9446010C9463010C9463010C946301FD
:100010000C9463010C9463010C9463010C946301D0
:100020000C9463010C9463010C94E41B0C94B81CB5
:100030000C94DB160C9463010C9463010C94630123
:100040000C9463010C9463010C9463010C946301A0
:100050000C9463010C9462170C9463010C9463017B
:100060000C9463010C9463010C9463010C94630180
:100070000C9463010C9463010C9463010C94630170
:100080000C9463010C9463010C9463010C94630160
:100090000C9463010C9463010C9463010C94630150
:1000A0000C9463010C9463010C94630129001E00FD
:1000B0001F00200021002200230000002B0014005C
:1000C0001A000800150017001C0000003900040089
:1000D0001600070009000A000B000000E1001D00E7
:1000E0001B0006001900050011000000E000E200FE
:1000F0002800280000000000000000002400250067
:10010000260027002D002E002A002A0018000C00CF
:10011000120013001F022F02300000000D000E001D
:100120000F003300340028000000000010003600EB
:10013000370038002D02E500000000002C002C00E4
:10014000E600E40000000000000000001603640068
:1001500075006D006200620065006C006C00360086
:10016000330000001A03640075006D006200620035
:1001700065006C006C005F006D0061006E000000A7
:100180000403090409023B00020100A03209040033
:1001900000010301010009211101000122400007B3
:1001A00005810308000109040100010300000009A2
:1001B0002111010001227B000705820320000112AA
:1001C0000100020000000863DB63DB0100010200A4
:1001D0000105010902A10185020901A10005091912
:1001E00001290815002501950875018102050109FD
:1001F0003009311581257F9502750881060938156A
:1002000081257F950175088106050C0A3802158144
:10021000257F950175088106C0C005010980A101EF
:10022000850319012AB700150126B700950175103D
:100230008100C0050C0901A101850419012AA00251
:10024000150126A002950175108100C0050109065F
:10025000A101050719E029E7150025019508750199
:1002600081029501750881010507190029FF150014
:1002700026FF0095067508810005081901290595D6
:100280000575019102950175039101C011241FBEEE
:10029000CFEFDAE0DEBFCDBF11E0A0E0B1E0E8E6ED
:1002A000FEE302C005900D92AC38B107D9F722E009
:1002B000ACE8B1E001C01D92A137B207E1F70E949E
:1002C000FC100C941C1F0C940000B0E0A0E0EBE6C6
:1002D000F1E00C94841EAFE1B1E029E231E0ED01E0
:1002E00061E070E08991E82FE295EF70F0E011A1F4
:1002F0008F70AB0101C0440F8A95EAF7942F909557
:10030000912391A382A1842B82A32C173D0751F73F
:10031000C7E1D1E04FE151E0BE0101E010E0FB0197
:100320008191BF01E82FE295EF70F0E0D1A08F70CE
:10033000780101C0EE0C8A95EAF79E2D90959D21DB
:1003400091A382A18E2982A34617570741F761E046
:1003500070E08991E82FE295EF70F0E0F1A08F70E6
:100360008B0102C0000F111F8A95E2F7902F909524
:100370009F2191A382A1802B82A34C175D0749F78F
:10038000C1E0D0E08D91E82FE295EF70F0E061A13F
:100390008F70AE0101C0440F8A95EAF7942F9095B3
:1003A000962391A382A1842B82A32A173B0751F79E
:1003B000CDB7DEB7E7E00C94A01EA4E0B0E0E3EE1A
:1003C000F1E00C947A1E8C010B5F1F4F3FE1E32E8E
:1003D00031E0F32E9C838B83712C88248394912CA1
:1003E000AB81BC813C901D92BC83AB83F701219112
:1003F0007F01E22FE295EF70F0E031A12F70540100
:1004000001C0AA0C2A95EAF7232F2A2921A322A1A9
:100410006A2C6094262122A320EA2A95F1F7A7E10D
:10042000B1E0BA83A9836D0130E020E04B815C81AB
:1004300041505109D6015D906D01652D62956F7037
:1004400070E0DB0190966C91DA014C9070E0B52D74
:10045000BF705B2E02C075956795BA95E2F760FD97
:1004600096C0682D022E01C0660F0A94EAF7462A4C
:10047000DA014C922F5F3F4F28303105D9F621A188
:10048000622261A222A1A22AA2A221E03C91331100
:1004900001C020E0722AEB81FC810E171F0709F0D2
:1004A0009FCF50E040E061E070E00A96A981BA81F8
:1004B0002D91BA83A983E22FE295EF70F0E0A1A11C
:1004C0002F707B0102C0EE0CFF1C2A95E2F797010A
:1004D0003A2F322B31A332A12095232322A320EAE5
:1004E0002A95F1F79B01042E01C0220F0A94EAF726
:1004F000922EB22EB094F8012FE1E22E21E0F22EDE
:10050000612C6F01A080D7018D907D01282D22954F
:100510002F7030E0D90190962C9130E0A82DAF706B
:1005200002C035952795AA95E2F720FD32C0292D06
:100530002A2920833196D6012C91A21611F0662427
:1005400063948E179F07E9F6E981FA81319720813C
:10055000E22FE295EF70F0E0A1A12F707B0102C0C5
:10056000EE0CFF1C2A95E2F73E2D30953A2331A37D
:1005700022A12E2922A376284F5F5F4F48305105D4
:1005800009F094CF872D2496E1E10C94961E60E04B
:100590006ECF2B2D2A21CDCF81E0089581E00895E3
:1005A0000E94CE02089508950E94D3020895A5E006
:1005B000B0E0EDEDF2E00C94881E49835A8330914F
:1005C000930189819A81311119C0662399F0222300
:1005D00089F00E94C908182F682F89819A810E948A
:1005E000A60869817A81812F0E943C0F2596E3E05D
:1005F0000C94A41E0E94B708182FF3CF0E94C908BC
:1006000069817A81F1CFFC01262F4081518162817D
:10061000738184810E94D702089581E00895CF9369
:10062000DF93EC0160E00E940303BE010E94D4024C
:10063000DF91CF9108950E947D1008950E9481104E
:10064000089508950E9471070E9421032FEF84E30B
:100650009CE0215080409040E1F700C000000895E8
:100660000E9422030E94861708950E9422030E947E
:10067000971708950F931F93CF93DF938C0161E039
:100680000E940303EC01B8010E94D002811106C050
:1006900080E0DF91CF911F910F910895B801CE01B5
:1006A0000E9489158823A1F3B801CE010E948D1301
:1006B000882371F3B801CE010E94FB14882341F313
:1006C000F8018281882361F0CB35FDE5DF0701F178
:1006D00058F4C115ECE5DE0791F0CF3DDC4591F013
:1006E000C8010E94CC02D5CFCD358DE5D80769F081
:1006F00090F0C83ADD45A1F70E943503C9CF0E94AA
:100700003003C6CF0E94830DF7CF0E94C10CE8CF03
:100710000E94CB0CE5CF0E94CF0CE2CF0E94B8160E
:100720000E94AB0308950E94AF030E94BD16089576
:1007300008950E949803089581E008950E949C0303
:1007400008950895CF93C82F0E9499038C2F0E947B
:100750009E03CF91089580E00E94A20308950E9415
:10076000E5150E94A2030895CF930E94E515C82FB6
:1007700080918E018C1779F0C0938E010E944717EB
:1007800060938F01709390018093910190939201F7
:100790008C2F0E94A203CF910895ABE0B0E0E3ED6F
:1007A000F3E00C94891E4F83588769877A878B877B
:1007B00061110E940C0C1E821D8285E0FE0137969D
:1007C000DE01119601900D928A95E1F78C819D8151
:1007D000892B61F449815A816B817C818D819E8155
:1007E0000E94350B2B96E2E00C94A51E89819A811C
:1007F00089238F3F79F3CE0101960E940D03811169
:10080000E9CFF0CFFC01808191810E94FB0808951F
:10081000CF93C82F8823C9F08238C9F40E94E51508
:1008200081FD13C089E30E94C40B0E942D0C2FEFA1
:1008300087EE93E0215080409040E1F700C0000037
:1008400089E30E94CC0B0E942D0CCF910895833830
:10085000A1F40E94E51580FDF8CF83E50E94C40B4A
:100860000E942D0C2FEF81EE94E0215080409040AB
:10087000E1F700C0000083E5E4CF8438A1F40E94D2
:10088000E51582FDE2CF87E40E94C40B0E942D0C87
:100890002FEF81EE94E0215080409040E1F700C0BE
:1008A000000087E4CECF8CEF8C0F813A90F46C2F50
:1008B00080910001909101010E944916882329F03E
:1008C0008C2F0E94CC0B0E942D0C8C2F0E94C40BED
:1008D000BACF80E28C0F883048F4C77081E001C045
:1008E000880FCA95EAF70E94EF0BADCFEBE5EC0F4E
:1008F000E33040F4F0E0E95AFE4F808190E00E943E
:100900000B16A3CFE8E5EC0FE73150F4F0E0EE0F63
:10091000FF1FE75DFE4F808191810E94211695CFD8
:10092000CD3E08F492CF8C2F0E9480110E9453126A
:100930008CCF882309F455C0823879F40E94E515DC
:1009400081FF4FC089E30E94C40B0E942D0C89E3F4
:100950000E94CC0B0E942D0C0895833859F40E94FC
:10096000E51580FF3EC083E50E94C40B0E942D0C5C
:1009700083E5EECF843859F40E94E51582FF31C03B
:1009800087E40E94C40B0E942D0C87E4E1CF9CEF0A
:10099000980F913AE8F290E2980F983050F48770EF
:1009A00091E001C0990F8A95EAF7892F0E94F50B13
:1009B000D1CF9BE5980F933028F490E080E00E941F
:1009C0000B16089598E5980F973128F490E080E091
:1009D0000E94211608958D3E20F00E94DA110E9497
:1009E000531208951F93CF93DF93182FEB010E94AA
:1009F0000804209739F4812F0E949904DF91CF9148
:100A00001F9108958FE99FE00197F1F700C0000062
:100A10002197EFCF70E060E0893311F460E570E07A
:100A20000E94F2040895882321F00E94EF0B0E9497
:100A30002D0C0895882321F00E94F50B0E942D0CA7
:100A40000895B0E0A0E0E7E2F5E00C94821E6C01AE
:100A5000D62FC72FFC011281F580F2949FE0F92276
:100A60000E94E50BE82E8823B9F0E12E1123A1F0B6
:100A70008C2F807F803421F080E28D0F8830D0F081
:100A800080914B0282FF16C082E00E94900C0E946F
:100A9000E50B91E0E82EE926BC2EB2948FE0B82257
:100AA000FBE0FB1508F468C0EB2DF0E0E25EF04ED1
:100AB0000C94731EE12CF0CF0C2F0F70C07F11F03F
:100AC0000295007F112399F0002359F080E28D0FE9
:100AD000883010F0D11107C0802F0E94EF0B0E94C8
:100AE0002D0C8D2F41C0802F0E94FF0BF8CF8D2F32
:100AF0000E949904002309F43FC080E28D0F8830E2
:100B000010F0D11104C0802F0E94F50B03C0802F7C
:100B10000E94050C0E942D0C2FC00C2F0F70C07F5F
:100B2000C03211F00295007FDD2381F0D13009F44D
:100B300063C0112309F46DC0FF2009F463C0F601FE
:100B4000858180FFCECF8F7085835CC080914B0202
:100B500082FD33C0112359F0002329F0802F0E9419
:100B6000EF0B0E942D0C80E00E94080405C080E07D
:100B70000E9499040111C7CFEB2DE850FF0B349769
:100B800020F40E94E5150E94A203EE2089F00E9445
:100B9000E10B80FD0DC0F60112820E94DB0B0E946A
:100BA0000408C6010E9431070E94DB0B0E94140852
:100BB000CDB7DEB7E9E00C949E1E112389F0F11049
:100BC00006C00E940F0C802B0E941305D5CF21E098
:100BD000F212F7CF0E940F0C802B0E94160CCCCF84
:100BE000F11006C00E94230C802F0E941A05C4CF6A
:100BF00031E0F31609F2F6CF112331F085E08F15BD
:100C000008F4BACF802FE0CF94E09F1508F4B4CF5A
:100C1000EBCFFF2049F3D93349F4FFEF27EE33E060
:100C2000F15020403040E1F700C000008D2F0E94BD
:100C30009904A2CF8C2F86958695837069F08130B8
:100C400009F09ACF8D2F9C2F9370111102C090E064
:100C500080E00E94211690CF8D2F9C2F9370111150
:100C600002C090E080E00E940B1686CF8D2F1123EA
:100C700029F00E9480110E9453127ECF0E94DA1147
:100C8000FACF8C2F8370A1F5111176CF4D2F42959D
:100C900046954770440F440F2D2F2F7030E0042EDF
:100CA00002C0220F331F0A94E2F790E080E0D4FFE5
:100CB00009C08FE090E002C0880F991F4A95E2F7C3
:100CC00080959095C695C695C370822B932BC230A4
:100CD00049F058F4C13019F00E94D2074DCF0E945C
:100CE000C9074ACF0E94DB0747CF0E94C60744CFFF
:100CF0008695112311F08C2F8170882309F43CCF45
:100D00004D2F429546954770440F440F2D2F2F705D
:100D100030E0042E02C0220F331F0A94E2F790E065
:100D200080E0D4FF09C08FE090E002C0880F991FD7
:100D30004A95E2F780959095C695C695C370822B2B
:100D4000932BC23049F058F4C13019F00E943F088B
:100D500013CF0E94360810CF0E9448080DCF0E9482
:100D6000EA070ACFCF70112329F08C2F0E940408C4
:100D70008D2F2ACF8D2F0E941A058C2F0E941408C8
:100D8000FBCED23F51F160F4D03FB9F0D13F81F0BA
:100D9000112309F449C0F110A4CE8C2F8F7121C00A
:100DA000D33F11F1D43FA1F780914B0282FD26C0C1
:100DB0008C2F8F71112311F314C0112349F084E09B
:100DC0008F1508F4D9CE8C2F8F710E942608D4CEAF
:100DD00095E09F1508F4D0CEF6CF8C2F8F711111AE
:100DE000CDCF0E940408C8CE112329F08C2F8F711B
:100DF0000E94F807C1CE0E94F307BECE112349F02E
:100E0000CF718C2F0E94040863E08C2F0E94720C1B
:100E1000B3CE81E00E94900CE1E0EF1508F0ACCE7B
:100E200082E00E94900CA8CEF110F5CE8C2F8F712D
:100E3000A5CF0F931F93CF93DF93EC016881798146
:100E40008A810E9406098C010E9451080E94C507F0
:100E5000B801CE010E942105DF91CF911F910F9122
:100E60000895CF93DF93EC018B819C81892B29F02E
:100E70008881998189238F3F51F4DF91CF91089523
:100E8000CE010E941907CE010E940F03F6CFCE01BA
:100E90000E943A038111F4CF0E94E50B882369F385
:100EA0008A81882351F380914B0282FFE6CF82E052
:100EB0000E94900CE2CF90E080E00E940B1690E040
:100EC00080E00E9421160E940C0C0E942D0C0E94B2
:100ED0006F120E94531208950E94D40B0E945B0768
:100EE00008950E94FC0B0E946C07089592959F70D4
:100EF000963091F058F4925F9F70923058F4803F92
:100F000019F030F4883E30F481E008959A5FF4CF10
:100F1000843FD1F380E00895883EB0F3813FD1F75C
:100F2000F3CFFC0183819481892B29F08081918109
:100F300089238F3F11F480E00895808191810E9480
:100F4000FB080E9476070895A5E0B0E0EAEAF7E022
:100F50000C94891E2596E2E00C94A51EA6E0B0E054
:100F6000E4EBF7E00C94891E2696E2E00C94A51EB3
:100F700008950E94B80708950E94B9079093BF0191
:100F80008093BE010E945B07089508950E94BC07EC
:100F900008952091BE013091BF01822B932B0E94B6
:100FA000BC0708952091BE013091BF018223932395
:100FB0000E94BC0708952091BE013091BF01822795
:100FC00093270E94BC0708950E94B80708950E94C5
:100FD000E40708950E94E7079093BD018093BC0148
:100FE0000E945B07089590E080E00E94EA07089560
:100FF00021E030E0A90102C0440F551F8A95E2F7B5
:10100000CA010E94EA07089521E030E002C0220FE1
:10101000331F8A95E2F78091BC019091BD01822B2C
:10102000932B0E94EA07089521E030E002C0220FCE
:10103000331F8A95E2F7209530958091BC019091FD
:10104000BD01822393230E94EA07089521E030E046
:1010500002C0220F331F8A95E2F78091BC01909164
:10106000BD01822793270E94EA0708952091BC01C1
:101070003091BD01822B932B0E94EA0708952091A5
:10108000BC013091BD01822393230E94EA07089599
:101090002091BC013091BD01822793270E94EA076D
:1010A00008950895262F277091E001C0990F2A9581
:1010B000EAF723E0769567952A95E1F7660F771FA3
:1010C000660F771FFA01E60FF71F50E040E0682F28
:1010D00070E08191DF0111979B01042E02C03695CB
:1010E00027950A94E2F7217021952827292328279C
:1010F0002C934F5F5F4F4430510559F70895A82F47
:10110000A77023E0969587952A95E1F7880F991F98
:10111000880F991FFB01E80FF91F50E040E080E0C5
:10112000219130E00A2E02C0369527950A94E2F705
:1011300021703327042E01C0220F0A94EAF7822B74
:101140004F5F5F4F4430510559F70895262F9A306D
:1011500068F4883058F438E0939FB0011124680F88
:10116000711D44E951E0822F0E94520808959A307F
:1011700070F4883060F448E0949F9001112464E991
:1011800071E0820F932F911D0E947F08089580E0E7
:101190000895B0E0A0E0EFECF8E00C94821E7C0132
:1011A0000091BC011091BD018091BE019091BF01E1
:1011B000082B192BCFE0D0E0CC24C394D12CBC2E2B
:1011C000C6010C2E02C0880F991F0A94E2F78023F3
:1011D0009123892B49F4219790F7B12C8B2DCDB712
:1011E000DEB7E9E00C949E1EB7018C2F0E94580FC9
:1011F000019789F3F3CFCF93DF93EC010E94C908E5
:10120000BE010E94580FDF91CF9108951F93CF9395
:10121000DF93EB0190919301992339F0CB010E9468
:10122000FB08DF91CF911F910895882369F0CB01CE
:101230000E94C908182F682FCE010E94A608BE017F
:10124000812F0E94580FEDCFCB010E94B708182FB5
:10125000F6CF1F93CF93DF93C091C00116E080912A
:10126000C1018C1304C0DF91CF911F910895D0E08C
:101270001C9FF0011D9FF00D1124EE53FE4F408185
:10128000518162817381848195810E94AE0721968C
:10129000C770E5CF4091F2015091F3016091F401E4
:1012A0007091F5018091F6019091F7010E94AE07CF
:1012B00008951F93CF93DF938091F701807F09F00A
:1012C00049C08091F401882309F444C08091C00191
:1012D000C091C1016091F2017091F301A091F501FB
:1012E000B091F601D62FD72316E0C81799F190E0F8
:1012F000109711F0DF3F19F401968770F6CF189F11
:101300009001199F300D1124F901EE53FE4F4181D8
:101310004713F2CF40814613EFCF42814111ECCF0A
:10132000438154814A1B5B0B483C510528F780914F
:10133000F7018F7080618093F701F901E953FE4F47
:1013400080818F708061808382EF91E00E943107FD
:101350000E942909DF91CF911F910895A1E1B0E08A
:10136000E4EBF9E00C94811E8C0185E0F801DE01CC
:101370001D9601900D928A95E1F7F801E28082EFC7
:10138000C82E81E0D82E6091F5017091F6016115AB
:10139000710509F44EC19091F2012091F301892F5A
:1013A00082238F3F09F445C140815181A380B480DD
:1013B000F090F401F501E61BF70BFF2009F4EAC0F9
:1013C0008091F701382F307FE83CF10508F0A3C089
:1013D00031116DC0FE2C251316C0941314C0E110FA
:1013E00012C08F7080618093F7010E944A09C60184
:1013F0000E9431078091F701F80185838F2D619656
:10140000EAE00C949D1EA114B10429F0842F8523D9
:101410008F3F09F027C180E0F82FF170DF2E80FFA9
:101420003CC08091C0012091C10136E0821315C0FB
:101430004D875E878D859E850E94FB08292F22950A
:101440002F702230F0F0243018F59F70F1F0F80181
:101450009581907FD1F4D12C1EC090E0389FF0018F
:10146000399FF00D1124EE53FE4F6181651306C0C4
:101470006081641303C06281E6120FC00196877019
:10148000D5CF9F7011F0882331F3805E883018F338
:10149000C8010E943107FD2CB1CFEE2009F4AECF78
:1014A0008091F70181608093F701F12CA7CF25137C
:1014B00006C0941304C0F801EE2009F487C0C801E7
:1014C0000E949107882319F1EE2009F18091F7011C
:1014D000803270F02091F2013091F30138872F8330
:1014E0001986BB86AA868C87CE0107960E94310793
:1014F00086E0F801A2EFB1E001900D928A95E1F744
:101500000E9459090E944A09FF24F39477CFC80129
:101510000E943107F9CF311113C07A2DB98AA88AF8
:101520006E2D89890E94A40782EF91E00E94310705
:1015300086E0F60111928A95E9F70E944A09B5CF33
:1015400025130FC094130DC0E1100BC0F801858363
:10155000C8010E94310786E0F60111928A95E9F7E9
:101560004DCFC8010E949107882389F2EE2079F2BD
:101570008091F701803208F4BBCF2091F2013091C5
:10158000F3013A8329831B82BD82AC828E83CE0114
:101590000196ACCFE83CF10508F03EC0FE2CEE20F1
:1015A00009F4B5CF25132AC0941328C08091F70100
:1015B00080FD1BC0982F907FC1F0F8018583903F7C
:1015C00031F0982F907F905F8F70892B8583C801B1
:1015D0000E94310786E0F801A2EFB1E001900D9280
:1015E0008A95E1F70E944A0909CF86E0F801A2EF47
:1015F000B1E001900D928A95E1F700CFC8010E94F9
:101600009107811175CF8091F70181608093F70177
:10161000C8010E943107F2CE7A2DB98AA88A6E2DB0
:1016200089890E94A40786E0F60111928A95E9F75C
:10163000D9CFEE2009F46BCFC8010E949107F82E94
:10164000882309F464CF86E0F801A2EFB1E00190AD
:101650000D928A95E1F782EF91E00E9402040E94C8
:101660005909C0CF81E08E25D7CEACE0B0E0EBE3E6
:10167000FBE00C94881E4F83588769877A878B8795
:101680009C87CE0107960E94AE09882369F08A855F
:101690009B85892B39F04F815885842F85238F3F77
:1016A00009F06BC016E05FC086E0FE013796DE01F0
:1016B000119601900D928A95E1F78A859B85892B79
:1016C00089F38F81988589238F3F61F32091C10130
:1016D00030E0C9010196877099274091C0014817F1
:1016E000190671F40E9471071092C1011092C00195
:1016F00086E0E2EFF1E0DF011D928A95E9F7D2CFB3
:1017000096E0929FD001939FB00D1124AE53BE4F2F
:10171000FE01319601900D929A95E1F78093C101F7
:101720000E942909BFCF819FC00111248E539E4F73
:101730000E94AE098823E9F0E091C0011E9FF001EC
:101740001124EE53FE4F4081518162817381848167
:1017500095810E94AE078091C00190E0019687704C
:1017600099278093C0018091C0019091C101891394
:10177000DACF2C96E3E00C94A41E69857A858B85DC
:101780009C850E94AE078ECF682F809100019091BA
:1017900001010E947F160895682F809100019091A9
:1017A00001010E948216089580910001909101012B
:1017B0000E948516089580910002859585958595EE
:1017C00008958091000287700895909100029770AB
:1017D00081E009F480E0089580910B0208959091D2
:1017E0000B02892B80930B020895809590910B0238
:1017F000982390930B02089510920B0208959091F4
:101800000A02892B80930A020895809590910A021A
:10181000982390930A02089510920A0208958091E5
:101820000102089508950E94120C089590914B02B0
:1018300092FF08C090910102981721F08093010255
:101840000E94130C089580910102882329F01092C0
:10185000010280E00E94130C0895CF93DF93E09182
:101860000001F091010180910B028083E091000161
:10187000F0910101808190910A02892B80839091DF
:101880000102992381F0E0910001F0910101808132
:10189000892B808380910001909101010E9437166D
:1018A00081110E94230CC0910001D091010148E0F8
:1018B00050E068EF71E0CE010E94C41E892B59F000
:1018C00088E0FE01A8EFB1E001900D928A95E1F762
:1018D000CE010E94F215DF91CF91089508950E94E4
:1018E0006E0C089590914B0292FF11C098E0899F71
:1018F00090011124622B609300020E9404088091E1
:1019000000028595859585950E946F0C08950E942B
:10191000040808951092000280E00E946F0C089560
:10192000909100028095892380930002282F2770D0
:1019300091F4282F082E000C330B9217130659F040
:1019400090914B0292FF07C08595859585950E94E1
:1019500014080E948A0C089590914B0292FB222752
:1019600020F9281769F080FB92F990934B0280913F
:101970004A0290914B020E94FD0C82E00E94900C62
:10198000089580914B0282FB882780F991E0892796
:101990000E94AC0C089581E00E94AC0C089580E098
:1019A0000E94AC0C08956FEF7FEF90E080E00E9402
:1019B000061F089590E080E00E94E21E21E0883E2C
:1019C0009E4F09F020E0822F089582E090E00E946F
:1019D000DA1E089583E090E00E94DA1E0895CF9306
:1019E00084E090E00E94DA1EC82F82E290E00E941C
:1019F000DA1E982F8C2FCF910895CF93C92F682F7F
:101A000084E090E00E94E81E6C2F82E290E00E9449
:101A1000E81ECF910895AB01BC018FE090E00E94D9
:101A2000FA1E0895AB01BC0183E190E00E94FA1E0A
:101A3000089560E070E0CB010E94120D089560E00F
:101A400070E0CB010E940B0D0E94190D089568EE05
:101A50007EEF90E080E00E94061F60E082E090E070
:101A60000E94E81E60E083E090E00E94E81E109271
:101A7000BF011092BE0160E084E090E00E94E81E89
:101A800064E082E290E00E94E81E60E085E090E081
:101A90000E94E81E60E086E090E00E94E81E6FEF82
:101AA00087E090E00E94E81E40E050E0BA0188E044
:101AB00090E00E94FA1E60E08DE090E00E94E81E37
:101AC00040E050E0BA0188E190E00E94FA1E60E038
:101AD00087E190E00E94E81E40E050E0BA018CE10E
:101AE00090E00E94FA1E70E060E080E290E00E94C8
:101AF000061F40E050E0BA0188E190E00E94FA1E23
:101B00000E941F0D08950E94270D0895682F8EE0F2
:101B100090E00E94E81E08950E94471760931C02FF
:101B200070931D0280931E0290931F02609318020F
:101B30007093190280931A0290931B0208950895DE
:101B400008950E94A00D089508950E94A40D08957F
:101B500082E490E10E94DB150E949F0D0E94A10D7E
:101B6000089581E008950E94B10D089508950895A3
:101B70000E94B60D0E94B70D08950E945E100E944B
:101B8000A10308950E9432170E948B100E94BD0D80
:101B90000E94A50D0895AAE0B0E0E1EDFDE00C94EF
:101BA000811E0E949D108EE0A82E82E0B82E750145
:101BB00010E0F70101917F01812F0E9484101F5FC7
:101BC0001A3009F440C00817A1F38091200281FD6A
:101BD0000E948A100E94B30DC82E10E0812F0E942F
:101BE0008410082FF50181915F01081731F1D02E83
:101BF000D826F12CEE24E3948D2D8E21B1F0CC204B
:101C0000A1F0FE821F8391E0802F8E2109F490E0E5
:101C100098870E943B178160782F9A8789874E8129
:101C20005F8168858A850E94CD03F394EE0CF8E00D
:101C3000FF12E2CFF501319700831F5F1A3071F672
:101C40000E948C0D20C00813C0CF0E943B178C014E
:101C500080910C0290910D0208171907A1F08FEFE7
:101C600089838A831B820E943B178160782F9D8322
:101C70008C8349815A816B818D810E94CD031093A1
:101C80000D0200930C020E9491120E94B4032A9646
:101C9000EAE00C949D1ECF93DF930E945D0FEC0150
:101CA000811521E5920708F042C0811530E59307C0
:101CB00008F09FC0883E910530F5803E910508F000
:101CC00094C0883A910588F4853A910508F086C059
:101CD0008130910509F489C0009709F486C0049702
:101CE00008F083C0D0E0C0E080C08F3B9105D0F702
:101CF000C85AD0E0CC0FDD1FC65ADE4F0990D881FC
:101D0000C02DD46472C0811540E2940750F4C1150F
:101D100081E0D80708F069C0CD3ED10518F3D06541
:101D200064C081159044F0F2DF70D06A5EC0811506
:101D300035E5930718F5811544E5940708F085C04B
:101D4000C11583E5D80708F06CC0C11522E5D2079C
:101D500008F462C0CE018370992721E030E002C010
:101D6000220F331F8A95E2F7C695C69580E2C89F79
:101D7000E0011124C22BD32BDC6837C0811539E573
:101D80009307A8F4811548E5940708F063C0C115CE
:101D900086E5D80708F0A6CF8C2F0E94FF0FC82F2A
:101DA000D0E0DC2FCC27CC27DF71D0621EC081159C
:101DB0002AE5920708F453C090568115904208F026
:101DC00091CF8D2F8F710E94FF0F90E0982F882761
:101DD00088279F719C012C2BE901E7CFC55AD0E0E1
:101DE000C857DE4FC881D0E0D064CE01DF91CF91DB
:101DF00008958370992721E030E002C0220F331F3D
:101E00008A95E2F7C695C69540E2C49FE001112489
:101E1000C22BD32BDD68E9CFDC2FCC27C16FD06A72
:101E2000E4CFCE018370992721E030E002C0220F79
:101E3000331F8A95E2F7C695C69540E2C49FE0013C
:101E40001124C22BD32BDA68D0CFD82FCC27C46F64
:101E5000D06ACBCFD82FCC27C06FD06AC6CF8F70B7
:101E60000E94FF0F34E0D695C7953A95E1F7CF7001
:101E70009C2FEC01D069B9CF7A30B8F46830A8F45F
:101E8000E72FF0E09AE0899FE00DF11D112483E037
:101E9000EE0FFF1F8A95E1F7E60FF11DEE0FFF1F12
:101EA000E455FF4F85919491089580E090E0089566
:101EB0000E943C0F0E944B0E089582389105B9F1A3
:101EC000B0F48133910509F47DC048F4893291055D
:101ED00009F46DC08A32910509F47BC008958533F9
:101EE000910509F45FC08933910509F10895833E96
:101EF0009105D9F138F4803E910529F1823E910592
:101F000079F10895863E9105D9F1873E910509F44E
:101F10003EC0843E910541F520914B0221FF24C033
:101F200080914A0284FD19C087EE90E008952091C7
:101F30004A02237009F05AC020914B0223FF14C0BB
:101F400089E290E0089520914A0220FD38C0309146
:101F50004B0230FF09C024FF43C090E080E00895A9
:101F600020914A0222FDF7CF089520914A0222FDD6
:101F70003AC030914B0230FD39C024FFF5CFEDCF90
:101F800020914A0223FFF0CF24FDE7CFCDCF20914F
:101F90004A0223FD2EC030914B0231FFEECF84EE7A
:101FA00090E0089520914A0225FFDECFC9CF20910D
:101FB0004A0225FD21C020914B0223FFD5CF89E3A2
:101FC00090E0D2CF20914A0226FFCECF8AE290E065
:101FD000089520914A0226FFC7CF81E390E008953B
:101FE00083EE90E0089582EE90E0089580EE90E018
:101FF000089586EE90E0089585E390E0089590912D
:102000004A0292FF06C0282F28712830F9F4877FF2
:10201000846093FF06C0282F28712831F1F4877E51
:10202000846120914B0220FF06C0382F3871383070
:10203000D9F4877F816021FF06C0282F28712831BD
:10204000D1F4877E816194FD877E0895282F2471C5
:102050002430F9F68B7F8860DCCF282F247124315F
:1020600001F78B7E8861DDCF382F3171313019F760
:102070008E7F8860E0CF282F2171213121F78E7E5D
:102080008861E1CF80E008950E94D30C08950E94FA
:102090009D108FE39CE90197F1F700C000000E94BA
:1020A0009D1080E00E94841080FF04C00E944410B4
:1020B0000E94861708950E94471008950E94DA0C26
:1020C000811102C00E94830D0E94E50C80932002C2
:1020D0000E94EF0C90934B0280934A020E945B1087
:1020E0000E94EA0C90E00E94C6078091BC0190918A
:1020F000BD010E94E707089508950E947C1008958D
:1021000008950E9480100895E82FF0E0EA5AFD4FEC
:102110008081089508950E946501ECE4F2E0A6E54F
:10212000B2E011921D9282E0E635F807D1F78AE01D
:102130000E94B0100E941B030895CF938CE492E09C
:102140000E94DD01282F4AE066E572E08CE492E00F
:102150000E94B110C82F0E941E038C2FCF910895AA
:102160000895CF92DF92EF92FF920F931F93CF9338
:102170006C017B01042F222349F081E0809323022C
:102180000E943B179093220280932102C091230268
:10219000C1110AC0C0E08C2FCF911F910F91FF9009
:1021A000EF90DF90CF9008958091210290912202CC
:1021B0000E945317059770F310E0A801B601C701FC
:1021C0000E94C41E892B41F0A801B601C7010E94DC
:1021D000D11E10922302DFCFC0E0FBCF0E943A193C
:1021E0000E94C20D0E94471908950E944C190E9436
:1021F000CB0D0E94661908950E94D4160E942019E2
:102200000E94A80D0E94EE100E94F5100E94B80DC9
:10221000FBCF80912A0280FF0DC06091070170E022
:10222000660F771F6038710570F56115710569F1EA
:10223000862F089581FF07C06091070184E0689FA1
:10224000B0011124EFCF6091070182FD0AC0809197
:1022500029028823A9F020910601609107018217C5
:1022600010F088E0ECCF869FC001112433E0880F86
:10227000991F3A95E1F7622F70E00E945F1ED2CF5E
:1022800068E070E0D5CF8FE7089581E008958091F0
:102290002A0280FF0CC06091030170E0759567957C
:1022A000759567956115710549F1862F089581FF30
:1022B00006C06091030170E075956795F3CF60915A
:1022C000030182FD0BC0909128029923A1F0609137
:1022D000020180910301961738F0682F70E0603892
:1022E000710500F38FE70895899FC001112470E004
:1022F0000E945F1EF4CF61E070E0D7CF81E00895C7
:102300008D3E31F40E940911819580932E0208952B
:102310008E3E19F40E940911F8CF8F3E31F40E94CD
:102320000911819580932D020895803F19F40E9430
:102330000911F8CF893F29F40E94471180932F0299
:1023400008958A3F21F40E9447118195F7CF8B3F72
:1023500031F40E94471181958093300208958C3F9B
:1023600019F40E944711F8CF9FE0980F983070F44D
:10237000815F990B21E030E001C0220F8A95EAF7D6
:1023800080912C02822B80932C0208958D3F31F492
:1023900080912A02816080932A0208958E3F21F461
:1023A00080912A028260F7CF8F3FB9F780912A028D
:1023B0008460F1CF40912D028D3E59F480912E0220
:1023C00087FF0DC010922E0241110BC010922902FE
:1023D00008C08E3E81F480912E0218169CF344238F
:1023E00081F080912F0290913002892B09F05AC020
:1023F0001092280208958F3E49F447FFF0CF1092C3
:102400002D0280912E028111ECCFE0CF803F19F494
:102410001416ACF3E4CF90912F02893F29F41916DA
:10242000F4F610922F02DBCF8A3F19F497FFD7CF33
:10243000F8CF909130028B3F29F497FFD0CF1092C4
:102440003002CDCF8C3F19F41916CCF3C8CF9FE0E2
:10245000980F983090F4815F990B21E030E0B9013A
:1024600002C0660F771F8A95E2F7CB0180959091A5
:102470002C02892380932C02B2CF8D3F31F48091BE
:102480002A028E7F80932A02AACF8E3F21F4809168
:102490002A028D7FF7CF8F3F09F0A1CF80912A02CA
:1024A0008B7FF0CF08950E943B179C0190912D02E5
:1024B00080912E02982B21F0309327022093260240
:1024C00090912F0280913002982B21F030932502B9
:1024D000209324028BE292E00E94FD15089586E08D
:1024E000EBE2F2E0DF011D928A95E9F710922902F2
:1024F0001092280210922A020895FC018281811113
:102500000EC0838181110BC08481811108C091E0CC
:102510008581811101C090E0892F8170089581E04B
:10252000FCCFA6E0B0E0E7E9F2E10C94881E86E07B
:10253000EBE2F2E0DE01119601900D928A95E1F74F
:1025400010922D0210922E0210922F021092300241
:102550008B819C81892B89F08091260290912702A2
:102560000E945317AC01909129029923C9F18091DF
:1025700008018417150608F440C08D819E81892BBF
:1025800091F080912402909125020E945317AC0192
:1025900090912802992309F471C080910401841755
:1025A000150608F479C0BE016F5F7F4F8BE292E0A1
:1025B0000E948C16811105C08BE292E00E947D1270
:1025C00081110E94531286E0FE013196ABE2B2E027
:1025D00001900D928A95E1F72696E3E00C94A41EF3
:1025E000209109018AE0289F9001112424173507C2
:1025F00020F69F5F9093290202C09F3FD1F71B8175
:10260000112359F00E9409119FEF11160CF491E06B
:10261000899F802D112480932D021C81112359F054
:102620000E9409119FEF11160CF491E0899F802DF3
:10263000112480932E0230912D02332309F49DCF73
:1026400020912E02222309F498CF45EB3403C001D8
:102650001124992359F090932D0245EB2403900106
:102660001124332339F030932E0287CF81E08093F9
:102670002D02F3CF81E080932E027FCF20910501C0
:102680008AE0289F900111242417350708F08BCF8A
:102690009F5F9093280202C09F3FD1F71D811123B5
:1026A00059F00E9447119FEF11160CF491E0899F99
:1026B000802D112480932F021E81112359F00E9436
:1026C00047119FEF11160CF491E0899F802D112482
:1026D0008093300230912F02332309F464CF20918C
:1026E0003002222309F45FCF45EB3403C0011124EB
:1026F000992359F090932F0245EB24039001112464
:10270000332339F0309330024ECF81E080932F0293
:10271000F3CF81E08093300246CFCF93DF93EC017B
:10272000FB018281882309F464C1C430FDE5DF0721
:10273000E0F5CB3F9CE5D90730F49E0122503C45A3
:1027400024313105D8F50E94EF0C90934B02809311
:102750004A02C231ECE5DE0709F41FC108F06EC081
:10276000C9308CE5D80709F4F2C008F03FC0C53085
:10277000ECE5DE0709F4DBC058F5C3308CE5D8077B
:1027800009F4CDC008F0CFC080914A028160C23008
:10279000DC4509F4AEC080914A0290914B020E9440
:1027A000FD0C0E94710780E009C0C63AEDE5DE0726
:1027B00051F238F4C2369DE5D90729F2DF91CF9165
:1027C00008959E012E5A3D4523303105B8F7BBCF01
:1027D00080914A028062C730FCE5DF0709F489C0B6
:1027E00008F4B1C080914A02806483C0CD309CE57A
:1027F000D90709F4BAC070F480914A028E7FCB30B9
:10280000FCE5DF0709F475C008F4A7C080914A020F
:102810008D7F6FC0CF309CE5D90709F4B6C008F4AE
:10282000A8C0C031FCE5DF0709F4B3C0C131DC4505
:1028300009F0B1CF80914A028F7B5BC0C1159DE545
:10284000D90709F4B4C098F5CB3FFCE5DF0709F4DC
:1028500072C0B8F4C4319CE5D90709F4B6C008F4D5
:10286000A2C0C531DC4509F096CF80914A0282FBB7
:10287000992790F921E0922790FB82F990FB83F948
:1028800038C0CD3F8CE5D80709F477C008F457C0AD
:10289000CE3FECE5DE0709F474C080914B02836003
:1028A000CF3FDC4509F077CF80934B0274CFC2361F
:1028B0008DE5D80709F496C068F4C230EDE5DE076F
:1028C00009F48CC008F477C0C330DD4509F063CF4C
:1028D00080E085C0CE3A9DE5D907E9F068F4909193
:1028E0004A02892F8E7F90FF8160C63ADD4509F04C
:1028F00052CF80934A024FCFCF3A8DE5D80789F166
:10290000C03BDD4509F047CF90914B02892F877F6F
:1029100093FF8860C9CF80914B028860C5CF8091BA
:102920004A028260E6CF80914A028460E2CF8091C1
:102930004A028860DECF80914B028160B5CF8091E2
:102940004B028260B1CF80914A028061D2CF0E9457
:10295000710780914A028068CCCF80914A028C60D6
:10296000C8CF80914B02877F9FCF80914A028B7F97
:10297000C0CF80914A02877FBCCF80914B028E7F6F
:1029800093CF80914B028D7F8FCF80914A028F7EB3
:10299000B0CF80914A028F7DACCF0E9471078091A9
:1029A0004A028F77A6CF80914A02837FA2CF80917F
:1029B0004B028C7F79CF80914B02982F909591702C
:1029C0008E7F892B90FB81F96FCF0E9471079091C8
:1029D0004A02892F97FB87F980588BCF81E00E94AC
:1029E000860DD9CE90914A02892F8F7E94FF806107
:1029F00080CF81E0E3CECF93DF93EB0186319C451E
:102A000011F50E94EC0B9A81992399F08A7A91E052
:102A100009F490E090933102811109C089E20E948B
:102A2000C40B0E942D0C80E0DF91CF91089585E3C7
:102A3000F6CF80913102811104C089E20E94CC0B53
:102A4000F0CF85E3FBCF81E0EFCF0F931F93CF93C0
:102A5000DF93C42FD22FFC0182818823C9F04093D9
:102A600034020E943B17909333028093320280E23B
:102A70008C0F883040F4C77081E001C0880FCA9580
:102A8000EAF70E941305DF91CF911F910F910895EE
:102A900010913402141332C08091320290913302AB
:102AA0000E945317883C910548F5C0E2CD0F1D17D1
:102AB000B9F080E2810F883040F4177081E001C0E6
:102AC000880F1A95EAF70E941A05C83048F481E089
:102AD0009D2F977001C0880F9A95EAF70E94130501
:102AE000802F0E940A05C83070F6D77081E001C0BF
:102AF000880FDA95EAF70E941A05C5CF80E28C0F9D
:102B0000883008F6C77081E001C0880FCA95EAF7DF
:102B1000F2CF0F939C01CB01243F4CE5340759F1D0
:102B2000A8F4293DFCE53F0701F12A3D4CE53407B7
:102B3000D1F1283D3C4591F406E221EE41EE68EDED
:102B40007CE50E94251580E00F910895263FFCE565
:102B50003F07E9F0B0F0273F3C45F9F0FC018281E6
:102B6000882339F110923402EFCF07E225EE45EECB
:102B700069ED7CE5E6CF06E221EE40EE64EF7CE510
:102B8000E0CF07E225EE44EE65EF7CE5DACF06E222
:102B900021EE42EE66EF7CE5D4CF07E225EE46EE6D
:102BA00067EF7CE5CECF08E221E045EE6AED7CE5FB
:102BB000C8CF81E0C9CF90938D0180938C01089597
:102BC00090933A02809339020895E0913902F0918E
:102BD0003A02309729F00190F081E02D099508958F
:102BE00080E00895E0913902F0913A02309721F0A7
:102BF0000280F381E02D09950895E0913902F0916A
:102C00003A02309739F022E0DC012C930480F58100
:102C1000E02D099508952091370230913802281748
:102C2000390771F09093380280933702E0913902AE
:102C3000F0913A02309721F00680F781E02D099556
:102C4000089520913502309136022817390771F026
:102C50009093360280933502E0913902F0913A0266
:102C6000309721F00084F185E02D099508959C01AD
:102C70002E5F3F4FAC01485F5F4F80E02417350760
:102C800009F40895F90191919F019923B9F38F5F98
:102C9000F5CF662349F0FC0132960896219126175C
:102CA00029F0E817F907D1F780E0089581E0089549
:102CB0009C01FC0132969FEF80E04191461751F054
:102CC0009F3F19F4411101C0982F8F5F8630A9F7FB
:102CD0009F3F09F40895290F311D97FD3A95F90199
:102CE00062830895FC01329608962191261303C051
:102CF000DF0111971C92E817F907B9F708950E94B0
:102D0000581608950E9472160895029626E0FC0156
:102D100011922A95E9F7089546E050E00E94C41EFA
:102D200021E0892B09F420E0822F089508950E9464
:102D300096160895811106C081E080933B020E949F
:102D40009716089582E0F9CF83E080933B020E94BA
:102D5000971608950E949A16089581E080933B0289
:102D60000E94971608950E94AD160895089508953B
:102D70000E94B7160895089508950E94B616089502
:102D8000CF930E94BB160E949D100E94BC16C0E00B
:102D90008C2F0E948410811105C0CF5FCA30C1F70B
:102DA000CF91089581E0FCCF85B7806885BF85B756
:102DB000806885BF08951F921FB61F9211248F93BC
:102DC0009F93AF93BF9380913C02811113C0809178
:102DD000600290916102A0916202B09163024196FB
:102DE000A11DB11D8093600290936102A0936202C5
:102DF000B0936302BF91AF919F918F911F901FBEBF
:102E00001F90189580916802843031F10E948E03E2
:102E100010923C0288E190E020E40FB6F894A89567
:102E2000809360000FBE2093600083B7817F846031
:102E300083BF83B7816083BF7894889583B78E7F83
:102E400083BF0FB6F894A895809160008861809345
:102E50006000109260000FBE08950E9471070E94EA
:102E60009303089582E084BD93E095BD9AEF97BDEA
:102E700080936E0008952FB7F8948091600290912E
:102E80006102A0916202B09163022FBF08952FB733
:102E9000F894609160027091610280916202909159
:102EA00063022FBF08959C014FB7F8948091600290
:102EB00090916102A0916202B09163024FBF821BA8
:102EC000930B089578941F921FB61F9211248F932D
:102ED0009F93AF93BF938091600290916102A09104
:102EE0006202B09163020196A11DB11D8093600240
:102EF00090936102A0936202B0936302BF91AF917D
:102F00009F918F911F901FBE1F90189587E797E79D
:102F1000909301088093000888E19AE00FB6F89436
:102F2000A895809360000FBE90936000FFCF88E16A
:102F30009AE00FB6F894A895809360000FBE909326
:102F40006000FFCF80914802089508959C0182E0BF
:102F50008093E9009FEF8091E800915085FD06C0C5
:102F600085ED8A95F1F700009111F5CF8091E80089
:102F700085FF0CC050E040E066E070E0C9010E94AF
:102F8000D8198091E8008E778093E8000895CF9358
:102F9000DF93EC0181E08093E9008FEF9091E800EE
:102FA000815095FD06C095ED9A95F1F700008111CD
:102FB000F5CF8091E80085FF14C050E040E068E064
:102FC00070E0CE010E94D8198091E8008E7780933E
:102FD000E80088E0FE01A0E4B2E001900D928A953D
:102FE000E1F7DF91CF91089580933D0270933F0206
:102FF00060933E0280916802843001F582E0809304
:10300000E9008FEF9091E800815095FD06C095EDA5
:103010009A95F1F700008111F5CF8091E80085FFC6
:103020000DC050E040E063E070E08DE392E00E946C
:10303000D8198091E8008E778093E8000895BC014C
:1030400084E00E94F4170895BC0183E00E94F41705
:10305000089580916702811109C00E94681B0E9437
:10306000C51B8091E20084608093E2000895109275
:10307000670208950E94AD1608956091640281E090
:10308000611101C080E00E94A41608959091680229
:1030900081E0943009F080E0609164020E94AA16F9
:1030A000089542E061EC81E00E94E41A42E261ECA2
:1030B00082E00E94E41A9091680281E0943009F065
:1030C00080E0609164020E949A16089580916A02DD
:1030D000833009F461C030F48130D1F1823009F4D9
:1030E0009EC008958A3009F48AC08B3009F46FC0FD
:1030F000893009F050C080916902813209F04BC0DB
:1031000080916D0290916E02029708F044C0809108
:10311000E800877F8093E8008091E80082FF37C055
:103120009091F3008091F200029731F48091F100C8
:10313000813011F0863021F48091F10080934802B3
:103140008091E8008B778093E8000E94181B23C0D1
:1031500080916902813AF9F48091E800877F809339
:10316000E80080916D0290916E02892B61F468E015
:1031700080E492E070E00E94271A8091E8008B774B
:103180008093E800089560E090E080E0F3CF8091C4
:1031900068028111C1CF089580916902813AD9F7FF
:1031A00080916D0290916E02892BA9F78091E800C1
:1031B000877F8093E8008091E80080FFFCCF8091BA
:1031C00016018093F1008091E8008E77BCCF80914A
:1031D0006902813201F780916D0290916E02892B14
:1031E000D1F68091E800877F8093E8000E94181B49
:1031F00080916B02809316010E947107089580915F
:103200006902813241F68091E800877F8093E8006F
:103210000E94181B80916C0280934902089580914E
:103220006902813A09F0B7CF8091E800877F8093E7
:10323000E8008091E80080FFFCCF80914902C1CF77
:1032400084B7877F84BF0FB6F894A89580916000FB
:10325000886180936000109260000FBE80E890E06B
:103260000FB6F89480936100909361000FBE0E94A6
:10327000B31608950E94681B0E94C51BE2EEF0E0A1
:1032800080818460808378940E94441E08958AE03F
:1032900091E00E94E015089580916802853031F434
:1032A00080916802853019F00E942D1708950E94C0
:1032B000021780916602882399F30E94C016882322
:1032C00079F30E94C2190E947107EACF08950E9403
:1032D0006A190895292F33272330310519F168F42D
:1032E0002130310509F444C02230310509F445C0CC
:1032F00090E080E030E020E025C02132310549F146
:1033000022323105A9F780E490E02CE432E0611527
:103310007105C1F08BE790E021ED31E0613071057E
:1033200089F0E6CF99278130910581F0009729F047
:103330000297F1F6ECE4F1E002C0E0E8F1E08491FC
:1033400090E09F01FA01318320830895E4E6F1E0E3
:10335000F6CF89E090E026E931E06115710591F33F
:1033600089E090E02FEA31E06130710559F3C0CF78
:1033700082E190E02FEB31E0E5CF8BE390E024E8B1
:1033800031E0E0CF80E189BD82E189BD09B400FE72
:10339000FDCF8091D8008F7D8093D8008091E00090
:1033A00082608093E0008091E00081FDFCCF089571
:1033B000AF92BF92CF92DF92FF920F931F93CF9362
:1033C000DF936C01EB018A010E94371BF82E8111FB
:1033D00023C00115110539F0F80180819181C81BC6
:1033E000D90BC80ED91EB12CA12C2097A9F0809121
:1033F000E80085FD22C08091E8008E778093E80088
:1034000001151105A1F0F80180819181A80EB91E66
:10341000B182A08285E0F82E8F2DDF91CF911F9190
:103420000F91FF90DF90CF90BF90AF9008950E94D2
:10343000371B8823D1F2F82EEFCFF60181916F016F
:103440008093F1002197FFEFAF1ABF0ACECFFC01A6
:1034500080916F029091700286179707A0F0611516
:10346000710529F49091E8009E779093E80090E030
:103470006115710551F4911108C08091E80082FF37
:1034800034C080E00895BC01F2CF809168028823A7
:10349000C1F18530C1F18091E80083FD30C0809199
:1034A000E80082FDEACF8091E80080FFE1CF8091C3
:1034B000F3002091F200382F6115710519F02830C2
:1034C000310558F091E02830310509F090E0209165
:1034D000E8002E772093E800CBCF81918093F10014
:1034E000615071092F5F3F4FE7CF809168028823B9
:1034F00041F0853041F08091E80083FFBECF81E04C
:10350000089582E0089583E00895FC0180916F02A0
:103510009091700286179707A0F06115710529F444
:103520008091E8008E778093E80090E06115710546
:1035300051F4911108C08091E80082FF35C080E00D
:103540000895BC01F2CF809168028823C9F18530CB
:10355000C9F18091E80083FD31C08091E80082FDCF
:10356000EACF8091E80080FFE1CF8091F3002091C5
:10357000F200382F6115710519F02830310558F027
:1035800091E02830310509F090E08091E8008E77D5
:103590008093E800CBCF84918093F1003196615005
:1035A00071092F5F3F4FE6CF80916802882341F079
:1035B000853041F08091E80083FFBDCF81E0089520
:1035C00082E0089583E00895982F973028F08F7057
:1035D0008093E90081E008959093E900242F762FED
:1035E00050E0981731F07091EC002091ED0050916F
:1035F000F00021FD02C09F5FE8CF3091EB003E7FDD
:103600003093EB003091ED003D7F3093ED00309131
:10361000EB0031603093EB007093EC002093ED00F1
:103620005093F0002091EE0027FDE5CF80E0089553
:103630008091690287FF13C08091E80082FF06C075
:103640008091E8008B778093E80004C08091680245
:103650008111F2CF0895809168028823D9F3809177
:10366000E80080FFF8CF8091E8008E77ECCF2091C2
:10367000E4003091E50095E6A9012091EC00822F4D
:10368000817020FF06C08091E80080FF06C080E0C6
:1036900008952091E80022FD1AC0809168028823D5
:1036A00089F0853089F08091EB0085FD0FC0209175
:1036B000E4003091E50042175307F9F29150E1F62A
:1036C00084E0089582E0089583E0089581E00895FC
:1036D0000E94D71B0E94DF1BE0EEF0E0808181603A
:1036E0008083E8EDF0E080818F77808319BCA7EDBF
:1036F000B0E08C918E7F8C9380818F7E808310923E
:10370000670208950F931F93CF93DF930E94D71BF7
:103710000E94DF1BC8EDD0E088818F778883888185
:103720008068888388818F7D888319BC10926802A5
:1037300010926402109266021092650200EE10E090
:10374000F80180818B7F808388818160888342E05B
:1037500060E080E00E94E41AE1EEF0E080818E7F7C
:103760008083E2EEF0E080818160808380818860E8
:103770008083F80180818E7F808388818061888347
:10378000DF91CF911F910F910895E8EDF0E08081D6
:103790008F7E8083E7EDF0E080818160808384E02C
:1037A00082BF81E0809367020E94821B0895E8ED4A
:1037B000F0E080818E7F80831092E2000895109265
:1037C000DA001092E10008951F920F920FB60F9247
:1037D00011242F933F934F935F936F937F938F9316
:1037E0009F93AF93BF93EF93FF938091E10082FF8C
:1037F0000BC08091E20082FF07C08091E1008B7FC7
:103800008093E1000E94431E8091DA0080FF19C07E
:103810008091D80080FF15C08091DA008E7F809360
:10382000DA008091D90080FF96C080E189BD82E1F5
:1038300089BD09B400FEFDCF81E0809368020E943B
:1038400029188091E10080FF19C08091E20080FF7B
:1038500015C08091E2008E7F8093E2008091E200AB
:1038600080618093E2008091D80080628093D800CC
:1038700019BC85E0809368020E943D188091E100A8
:1038800084FF2BC08091E20084FF27C080E189BDC6
:1038900082E189BD89B5982F917080FFFBCF80911F
:1038A000D8008F7D8093D8008091E1008F7E809337
:1038B000E1008091E2008F7E8093E2008091E2003F
:1038C00081608093E20080916402882309F449C0FA
:1038D00084E0809368020E9446188091E10083FF93
:1038E00029C08091E20083FF25C08091E100877F9D
:1038F0008093E10082E080936802109264028091DC
:10390000E1008E7F8093E1008091E2008E7F8093C2
:10391000E2008091E20080618093E20042E060E09A
:1039200080E00E94E41A8091F00088608093F000AB
:103930000E943A18FF91EF91BF91AF919F918F91A3
:103940007F916F915F914F913F912F910F900FBE9B
:103950000F901F90189519BC109268020E9437189A
:1039600070CF8091E30087FD93E090936802B3CF1E
:103970001F920F920FB60F9211242F933F934F93E4
:103980005F936F937F938F939F93AF93BF93CF93E7
:10399000DF93EF93FF93D091E900DF708091EC000B
:1039A000C82FC17080FDC0E81092E9008091F0003E
:1039B000877F8093F00078940E94FC1C1092E900AD
:1039C0008091F00088608093F000CD2BCF70C09381
:1039D000E900FF91EF91DF91CF91BF91AF919F915E
:1039E0008F917F916F915F914F913F912F910F90A8
:1039F0000FBE0F901F901895AAE2B0E0E2E0FDE143
:103A00000C94881E89E692E02091F100FC0121933C
:103A1000CF01F2E081379F07B9F70E9466188091C5
:103A2000E80083FF1EC18091690290916A029A307A
:103A300008F017C1E92FF0E0E65DF04E0C94731E1C
:103A4000803899F0823809F00CC180916D028F7036
:103A5000873008F006C18093E9008091EB0085FB78
:103A6000882780F91092E90006C080916502909144
:103A70006602911182609091E800977F9093E80030
:103A80008093F1001092F1008091E8008E77E5C0FC
:103A9000882309F4D3C0823009F0E3C080916B021F
:103AA0008111D6C080916D028F702FEF280F2630C4
:103AB00008F0D7C08093E9002091EB0020FFC8C038
:103AC000933031F48091EB0080628093EB00C0C0B2
:103AD0009091EB0090619093EB0021E030E001C009
:103AE000220F8A95EAF72093EA001092EA0080916B
:103AF000EB008860EACF8111B4C010916B021F7790
:103B00008091E3008078812B8093E3008091E8002E
:103B1000877F8093E8000E94181B8091E80080FF57
:103B2000FCCF8091E30080688093E30082E0111174
:103B300083E08093680295C08058823008F091C07D
:103B400080916B0290916C028C3D23E09207A1F56D
:103B500083E08A838AE289834FB7F894DE01139663
:103B600020E03EE051E2E32FF0E050935700E49173
:103B700020FF03C0E295EF703F5FEF708E2F90E063
:103B8000EA30C0F0C7968D939D932F5F243159F78B
:103B90004FBF8091E800877F8093E8006AE270E081
:103BA000CE0101960E94271A8091E8008B778093BE
:103BB000E80057C0C096E7CF60916D0270916E0229
:103BC000AE014F5F5F4F0E946719BC01892B09F45A
:103BD00048C09091E800977F9093E80089819A818E
:103BE0000E94851AE1CF8038E1F58091E800877F57
:103BF0008093E800809164028093F10045CF8111A9
:103C000030C090916B02923060F58091E800877F20
:103C10008093E800909364020E94181B80916402D4
:103C2000882311F084E005C08091E30087FDFACF7E
:103C300081E0809368020E94511813C080916B024A
:103C4000813079F481E0933009F080E0809366025E
:103C50001092E9008091E800877F8093E8000E943D
:103C6000181B8091E80083FF0AC08091E800877FDD
:103C70008093E8008091EB0080628093EB00AA962D
:103C8000E3E00C94A41E0895CF93809168028823EA
:103C9000A1F0C091E900CF709091EC00892F817064
:103CA00090FD80E8C82B1092E9008091E80083FD28
:103CB0000E94FC1CCF70C093E900CF91089597FB40
:103CC000072E16F4009407D077FD09D00E94B01E8D
:103CD00007FC05D03EF4909581959F4F089570950F
:103CE00061957F4F0895EE0FFF1F0590F491E02D31
:103CF00009942F923F924F925F926F927F928F9290
:103D00009F92AF92BF92CF92DF92EF92FF920F936A
:103D10001F93CF93DF93CDB7DEB7CA1BDB0B0FB674
:103D2000F894DEBF0FBECDBF09942A883988488831
:103D30005F846E847D848C849B84AA84B984C884C7
:103D4000DF80EE80FD800C811B81AA81B981CE0FBE
:103D5000D11D0FB6F894DEBF0FBECDBFED010895A3
:103D6000AA1BBB1B51E107C0AA1FBB1FA617B707A1
:103D700010F0A61BB70B881F991F5A95A9F78095BD
:103D80009095BC01CD010895FB01DC0104C08D912B
:103D90000190801921F441505040C8F7881B990BBD
:103DA0000895FB01DC0102C001900D92415050408A
:103DB000D8F70895F999FECF92BD81BDF89A992759
:103DC00080B50895A8E1B0E042E050E00C940E1FE9
:103DD000262FF999FECF92BD81BDF89A019700B4C4
:103DE000021639F01FBA20BD0FB6F894FA9AF99A64
:103DF0000FBE08950396272F0E94E91E0E94E81E19
:103E0000252F0E94E91E242F0C94E91E0196272FCE
:103E10000E94E91E0C94E81EDC01CB01FC01F9991B
:103E2000FECF06C0F2BDE1BDF89A319600B40D9206
:103E300041505040B8F70895F894FFCF5C055C05F9
:103E40008D058D051A063606BC05BC054106B20671
:103E5000C106C106201D481D311E481D311E7B1D97
:083E60009C1D311EF31DFF1D26
:103E68000202280850011E0A1401A217C717A61734
:103E780024181F18A51701F4F5F6F7313332C69147
:103E8800909466970000000000E200E900EA00B59F
:103E980000B600B700CD008301CC008A01920194DE
:103EA800012102230224022502260227022A02B344
:103EB80000B4006F007000818283E200E900EA002C
:103EC800B500B600B700CD008301CC008A0192018D
:103ED80094012102230224022502260227022A0233
:0C3EE800B300B4006F0070008182830002
:00000001FF
